:020000040800F2
:108000000050002099810008E1810008E18100080A
:10801000E1810008E1810008E18100080000000022
:10802000000000000000000000000000E1B50008B2
:10803000E18100080000000011B6000855B60008F4
:10804000E1810008E1810008E1810008E181000888
:10805000E1810008E1810008E1810008E181000878
:10806000E1810008E1810008E181000889B600088B
:10807000E1810008E1810008E1810008E181000858
:10808000E1810008E1810008A9B70008E18100084A
:10809000E1810008E1810008E181000869B9000878
:1080A000E181000889BC0008E1810008E181000845
:1080B000B5BC000895BC0008D1BC0008E1810008EF
:1080C000E1810008E1810008E1810008E181000808
:1080D000E1810008E1810008E1810008E1810008F8
:1080E000E1810008E1810008E18100080000000052
:1080F0000000000000000000000000000000000080
:0C81000000000000000000005FF8E0F14B
:108110000348044B834202D0034B03B11847704716
:108120003402002034020020000000000548064B05
:108130001B1AD90F01EBA301491002D0034B03B165
:10814000184770473402002034020020000000006D
:1081500010B5064C237843B9FFF7DAFF044B13B18F
:108160000448AFF300800123237010BD38020020C3
:10817000000000006C14010808B5044B1BB1044951
:108180000448AFF30080BDE80840CFE700000000DE
:108190003C0200206C140108002103E00B4B5B58EB
:1081A000435004310A480B4B42189A42F6D30A4A0C
:1081B00002E0002313600432084B9A42F9D303F023
:1081C0005FFC09F0F7F804F0C3FEFEE7444E010837
:1081D000000000203402002038020020F43100208A
:1081E000FEE7FEE706480068006880F3088862B68C
:1081F00061B6BFF34F8FBFF36F8F00DF00BF00008A
:1082000008ED00E04FF0500383F31188BFF36F8F48
:10821000BFF34F8FFEE7000008B54FF0500383F324
:108220001188BFF36F8FBFF34F8F074A1368013375
:10823000012B136007D14FF0E023D3F8043DDBB2EC
:108240000BB1FFF7DFFF08BD20020020054A08B58B
:1082500013680BB9FFF7D6FF013B13600BB983F32B
:10826000118808BD2002002008B5EFF305830F2B0D
:1082700007D90E4A9B5C0E4A12789A4201D9FFF741
:10828000C1FF4FF0E0230B4AD3F80C3D126803F412
:10829000E063934208D94FF0500383F31188BFF392
:1082A0006F8FBFF34F8FFEE708BD00BFF0E300E024
:1082B000A8310020A4310020002337B502680193C3
:1082C0009368DB0702D5002003B030BD93681249E4
:1082D00043F001039360114B1B68B3FBF1F301936F
:1082E000019BABB90E4C2568936813F00103EAD1EA
:1082F0002168491B0229F7D9826A80F8243042F0AC
:1083000010028262C26A42F00102C2620120DBE70F
:10831000019B013BE3E700BF40420F001C0200202D
:10832000982F0020036810B59A68D10701D4002067
:1083300010BD9A680A4922F001029A600C689A6896
:10834000D207F4D50A68121B022AF8D9836A43F0CF
:1083500010038362C36A43F00103C3620120E7E7AD
:10836000982F0020436A9A6A12F0500F18D19A6A27
:1083700042F400729A621A68926802F46022B2F5BE
:10838000602F10D1DA6872B99A6A22F480729A6208
:108390009A6AD20407D49A6A42F001029A6270473C
:1083A0001B6A1B6B18477047002337B5019390F881
:1083B00024300446012B5FD0012380F82430FFF7DE
:1083C000B1FF0546002839D1A36A2C4823F488530D
:1083D00023F0020343F00203A362294B1A68294BDE
:1083E00059685B68C1F3C221415CC3F38133013337
:1083F00022FA01F15B00B1FBF3F3B2FBF3F252009E
:108400000192019BF3B92046FFF756FF23689A6853
:1084100042F008029A601C4A10689968090715D44E
:10842000996841F0040199601068996849071ED461
:10843000A36A23F0030343F00103A362002384F83B
:10844000243011E0019B013B0193DAE71168091A1E
:108450000A29E2D9A36A012523F0120343F010038D
:10846000A362002384F82430284603B030BD11688D
:10847000091A0A29D9D9EDE70225F5E7184C0108B0
:108480001C02002000100240982F002010B590F828
:1084900024300446012B3DD0012380F82430FFF71F
:1084A0000BFF00283FD1A36A214A23F4405323F055
:1084B000010343F48053A3622368934205D1A2F5DC
:1084C0008062526812F4702F25D1A26A22F48012C1
:1084D000A262A26A12F4807208BFE262002284F8EB
:1084E00024206FF004021A605A68520512D49A6868
:1084F00002F4E042B2F5E04F11D10D4A934205D1AA
:10850000A2F58062526812F4702F08D19A6842F482
:1085100002129A6010BDA26A42F48012D8E79A68EB
:1085200042F40042F5E7002384F82430F2E700BF6C
:108530000028014090F82430F0B5012B63D00123CE
:108540001F2680F824300F694D680368EC1B04EB8C
:108550008404BD4204F10F040A6806FA04F69ABFC7
:10856000D3F838C002FA04F49C6B46F440169FBF5F
:1085700007F1FF3744EA07542CEA0606344388BF64
:10858000B4439C639C68E40707D49C68CE6924F4D8
:10859000E04424F0010434439C608E69012E0CD128
:1085A000CC69B4F5E04F0BBF5C68846A44F4806426
:1085B00044F020040CBF5C6084624C69012C04D13F
:1085C00016BB5C6844F480545C60092A8E6820D92C
:1085D00007270A3ADC6802EB4202974024EA0704C4
:1085E00006FA02F22243DA60022DCC6816491BD04B
:1085F000032D1ED0012D21D15A690A4022435A6110
:10860000002380F82430F0BD846A44F020048462A2
:10861000DBE707271C6902EB4202974024EA0704C4
:10862000964034431C61DFE79A690A4022439A610D
:10863000E6E7DA690A402243DA61E1E71A6A0A40AA
:1086400022431A62DCE700BF00F0FFFF114B10B5B8
:10865000DB684FF0FF34C3F30223DA1E042A86BF1F
:1086600004230022C3F1070304FA03F3002821EADC
:108670000301ACBF00F16040074B01FA02F14FEA81
:108680000111B5BF00F00F0000F56140195480F8EA
:10869000001310BD00ED00E014ED00E0054B1A6979
:1086A000120605D5044A5A6002F188325A601B69E5
:1086B000704700BF002002402301674510B54CF20F
:1086C00050342049204B0868DA68D20733D4DA687E
:1086D000910644BF2022DA60DA68D20606D4DA694D
:1086E000D40703D4D86810F0040023D0164AD36806
:1086F00013F0100305D01549CB6943F00203CB6199
:108700001023D268500706D5104943F00403CA6904
:1087100042F00102CA610C4AD169C90708D50B4869
:10872000C16941F00401C161D16921F00101D16148
:108730000120D36010BD0A68121AA242C4D90320D6
:10874000F8E700BF982F002000200240782F00207B
:108750002DE9F74F00244FF0010826464FF00F0E89
:10876000DFF890C1644B0A6808FA06F707EA0205C9
:1087700037EA020240F084804A68032A00F0B080A1
:1087800010D8012A00F0A180022A00F0A3808A6894
:10879000002A00F0A780012A4FF008040CBF0761EF
:1087A000476106E0122A00F0988070D8112A00F084
:1087B0008E80FF2D92BF814600F10409A6F10802C8
:1087C000D9F8007094BFB20092000EFA02FA27EABC
:1087D0000A0704FA02F21743C9F80070D1F80490AE
:1087E00019F0805F4CD0DCF8182026F0030742F027
:1087F0000102CCF81820DCF8182007F1804702F0BD
:108800000102019207F5803706F0030A019A4FEA48
:108810008A0ABA680EFA0AFB22EA0B0B374A904220
:1088200062D002F58062904260D002F58062904290
:108830005ED002F58062904214BF0422032202FA45
:108840000AF242EA0B02BA601A6819F4803F14BFB8
:108850002A43AA431A605A6819F4003F14BF2A43F6
:10886000AA435A609A6819F4801F14BF2A43AA4386
:108870009A60DA6819F4001F14BF2A43AA43DA6029
:108880000136102E7FF46FAF03B0BDE8F08FDFF834
:1088900070904A453FF47BAF0FD8A9F580194A453F
:1088A0003FF475AF09F570294A453FF470AFA9F55B
:1088B00080194A453FF46BAF7BE7DFF848904A45A3
:1088C0003FF465AF09F58039F3E7CC6871E7CC6810
:1088D00004346EE7CC6808346BE7CC680C3468E786
:1088E000002466E7042464E70022A8E70122A6E743
:1088F0000222A4E7001002400004014000080140E9
:10890000000022100000311070B5826A044686B063
:10891000002A39D10168654BC262994280F824204F
:1089200003F56C43996940F0848041F400719961CA
:108930009B695F4903F400730293029B5D4B4FF404
:108940008075C3E9001280214FF4806CC3E90315E0
:108950002021C3E905C14FF4805157481A649A6039
:10896000D9618168D8636FF30D1141F4AD51816015
:108970009A631D8423625C620F211220FFF766FE5A
:108980004FF480224D4B1A602046FFF7CBFCA36AC0
:1089900013F0100340F08680002840F08380A26A24
:1089A000616822F4885222F0020242F00202E06979
:1089B000A568A262E2680143B5F5807F41EA420101
:1089C00059D06E1E7042704100026669012E07D1B7
:1089D000002A52D1A269013A40EA423242F40060D0
:1089E0002268B5F5807F566826F4694640EA06009D
:1089F00050609668324806EA000040EA0100906044
:108A000001D0012D02D12369013B1B05D06A20F45E
:108A100070000343D36292682A4B1340994235D1C8
:108A20000023E362A36A23F0030343F00103A3627C
:108A300036E041F4806199619B69032503F480630A
:108A40000193019B082320480DEB03010492CDE91B
:108A50000235FFF77DFE1023CDE90235FFF778FEE2
:108A60000423CDE90235FFF773FE4023CDE902353B
:108A7000FFF76EFE80E72846A7E7A26A42F02002D1
:108A8000A262E26A42F00102E262A9E7A36A23F06D
:108A9000120343F01003A362E36A43F00103E362AD
:108AA00006B070BDA36A43F01003C0E70024014084
:108AB00008000240183100200000024000E100E000
:108AC000FDF7E1FFFE0E1FFF0008014090F83E3069
:108AD000012B22D1022380F83E3003681A6A22F06B
:108AE00001021A621A6A42F001021A620B4A9342A8
:108AF0000AD0B3F1804F07D0A2F59432934203D04D
:108B000002F58062934204D19A6802F00702062AB5
:108B100003D01A6842F001021A607047002C01402D
:108B20001A4A036890420AD0B0F1804F07D0A2F5EC
:108B30009432904203D002F58062904215D14A6887
:108B400023F070031343114A90420AD0B0F1804FD2
:108B500007D0A2F59432904203D002F58062904291
:108B600003D1CA6823F4407313434A6923F0800396
:108B7000134303608B68C3620B688362034B9842A4
:108B800004BF0B690363012343617047002C01405C
:108B90001FB590F83D30044603F0FF0200687BB932
:108BA000254B84F83C20984228D103F50333DA6939
:108BB00042F00202DA61DB6903F002030293029BD6
:108BC0000223211D84F83D30FFF7AAFF0123002076
:108BD00084F8463084F83E3084F83F3084F84030E2
:108BE00084F8413084F8423084F8433084F84430CB
:108BF00084F8453084F83D3004B010BDB0F1804FAA
:108C00000AD10E4BDA6942F00102DA61DB6903F046
:108C100001030193019BD3E7094B9842D0D103F59F
:108C20000233DA6942F00402DA61DB6903F004031B
:108C30000393039BC4E700BF000400400010024000
:108C40000008004010B590F83D30044603F0FF02E4
:108C50000BB980F83C200223206884F83D30211DA8
:108C6000FFF75EFF012384F8463084F83E3084F835
:108C70003F3084F8403084F8413084F8423084F842
:108C8000433084F8443084F8453084F83D3010BDDA
:108C9000022380F83D300368DA6842F00102DA60AE
:108CA0000B4A93420AD0B3F1804F07D0A2F5943219
:108CB000934203D002F58062934204D19A6802F095
:108CC0000702062A03D01A6842F001021A607047B0
:108CD000002C014013B500211920FFF7B7FC4FF01D
:108CE00000721B4B1B4C1A601B4B20469A6942F4C6
:108CF00000629A619A6902F400620192019A5A68CC
:108D00005A685A685A68154A12685B68144AC3F36D
:108D1000C223D25C134B1B68D340134AB3FBF2F35C
:108D2000124A013B2260636040F2E7320023E260B6
:108D30002361A360FFF72CFF94F83D30012B05D190
:108D4000204602B0BDE81040FFF7A2BF02B010BD40
:108D500000E100E05C3100200010024000200240F1
:108D6000184C01081C02002040420F00002C01405A
:108D700090F83C3010B5012B21D0022380F83D3013
:108D8000036809685A689C6822F070020A435A60B6
:108D90000B4A93420AD0B3F1804F07D0A2F5943228
:108DA000934203D002F58062934202D124F0800402
:108DB0009C60012380F83D30002380F83C3010BDDA
:108DC000002C014030B50C68631C0AD103695A6855
:108DD0004A6091608B6059600368086101330360E9
:108DE00030BD00F10802134652681568A542FAD951
:108DF000EDE70369D0E901128A6051605968814248
:108E000008BF5A6000220261186801381860704774
:108E1000024A136801331360704700BFE03000203E
:108E2000C36870B50BB9FFF7EDF99A6AD3E907018A
:108E30008160D8694860516803F11800814204BF1D
:108E4000196A516000219962116801391160204A44
:108E50001268002A2FD1D3E902015A69816098680B
:108E60001C1D486051681B48A14208BFD9680568AD
:108E700008BF51601168013911600121DA6A91401F
:108E8000294301601420424313498D186868986093
:108E90008668DE607460846088585D610130885047
:108EA0000E4A1168DA6ACB6A9A4285BF01200C4BE0
:108EB0000020186070BD0B4A5168D9618C681C6233
:108EC0006060886011689A6201311160E8E700BF54
:108ED000E0300020DC30002050300020383000200E
:108EE000343000203C300020F8B504460127FFF75D
:108EF00093F990F84550164E6DB2002D01DD636A6E
:108F0000B3B9FF23012784F84530FFF79FF9FFF736
:108F100083F994F844500E4E6DB2002D01DD2369A3
:108F200073B9FF2384F84430BDE8F840FFF78EB9E9
:108F3000206BFFF775FF00B13760013D6DB2DCE7D4
:108F4000E069FFF76DFF00B13760013D6DB2E4E706
:108F50003430002008B9054B1868026B0020135C00
:108F6000A52B01D0800870470130F8E73830002089
:108F7000064A13681968064B19B94FF0FF321A6098
:108F800070471268D2681268F9E700BF302F0020DE
:108F9000242F00202DE9F84F554B1B68002B40F083
:108FA000A080544B1C6801341C6084B9524B1A6871
:108FB00012680AB1FFF726F9504A1968106818605C
:108FC00011604F4A136801331360FFF7D1FF4D4D15
:108FD00000222B684C49A342DFF830C109D84FF07A
:108FE0001408454F4A4E3B681B689BB94FF0FF334E
:108FF0002B604848DCF8003004681420DB6A4343E7
:10900000C858012898BF002C14BF0120002010432D
:10901000BDE8F88F3B68DB68DB685868844201D2A2
:109020002860E6E7D3F81490D3E902E0CEF8080010
:10903000D3F808E0C0F804E0D9F8040003F1040E06
:10904000704504BFD868C9F80400D9F80000013899
:10905000C9F80000D3F82890B9F1000F17D0D3E970
:1090600007A0CAF80800D3F81CA0C0F804A0D9F8DB
:10907000040003F1180A504504BF186AC9F8040037
:1090800000209862D9F800000138C9F800000120DA
:10909000D3F82C90D6F800A000FA09F008FB09F9E3
:1090A00040EA0A0001EB090A3060DAF8040098602F
:1090B000D0F808B0C3F80CB0CBF804E0C0F808E072
:1090C00051F80900DCF800E00130C3F814A041F8C1
:1090D0000900D86ADEF82C30984288BF42F00102BD
:1090E00081E70D4A002013680133136090E700BF49
:1090F000E03000209C2F0020302F00202C2F00205B
:10910000682F0020242F002050300020383000200D
:10911000DC30002034300020282F00202DE9F84FCB
:10912000FFF77AF8514B1A6842B94FF0500383F3B6
:109130001188BFF36F8FBFF34F8FFEE71A68013AB4
:109140001A601B6823B10020FFF780F8BDE8F88F94
:10915000474A1268002AF6D09E4601264FF0140CAA
:109160004448454C454A464F464D59E0C368DB6884
:10917000D3F82880D3E90791C9F80810D3F81C90D8
:10918000C1F80490D8F8041003F11809494504BF48
:10919000196AC8F80410D8F80010C3F828E001399B
:1091A000C8F80010D3F81480D3E90291C9F8081068
:1091B000D3F80890D4F800A0C1F80490D8F80410AF
:1091C00003F10409494504BFD968C8F80410D8F868
:1091D00000100139C8F80010D3F82C8006FA08F105
:1091E0000CFB08F841EA0A0102EB080A2160DAF8F0
:1091F00004109960D1F808B0C3F80CB0CBF8049013
:10920000C1F8089052F80810C3F814A0013142F8D0
:1092100008103968D3F82C80C96A884500D92E60B7
:1092200001680029A2D10BB1FFF7A2FE164D2C68F0
:1092300044B10127134EFFF7ADFE00B13760013C8A
:10924000F9D12C600F4B1B68002B3FF47CAF0C4B0B
:109250004FF080521B684FF0E023C3F8042DBFF39A
:109260004F8FBFF36F8F01206EE700BFE03000200B
:10927000642F00203C300020DC30002050300020E3
:109280003830002034300020282F0020054B1B6888
:1092900033B1054B1868B0FA80F0400940007047C0
:1092A00001207047602F0020E0300020174B2DE98F
:1092B000F0411C68164B174D1E68174B80461F68FF
:1092C00028680430FFF795FD40B92A681349D06A31
:1092D00001220B68824023EA02030B602B68296895
:1092E00014EB08045C6001F1040104D33846BDE8C6
:1092F000F041FFF767BD3046FFF764FD084B1A6881
:10930000944238BF1C60BDE8F08100BF9C2F002054
:10931000302F0020383000202C2F0020DC3000209F
:10932000242F002038B5184CFFF772FDFEF774FFAC
:109330002368DB6DFBB1FEF789FF0025FFF7EEFE2A
:1093400055B148B94FF0E0234FF08052C3F8042DD7
:10935000BFF34F8FBFF36F8FFEF75EFF2368D86DAB
:1093600010B100222368DA650022236883F86020A8
:10937000FEF76CFF38BD0125236883F86050FEF7C7
:1093800065FFFFF793FFD9E73830002000207047D2
:109390007047632804DC0A28B4BF0120022070470C
:1093A00003207047024608B50846FFF7F2FFC300E6
:1093B0000C33DBB2C3F1380302EB630000B208BD2B
:1093C000F0B514264E431E4D1E4CAF1997F810C031
:1093D0002468BCF1000F06D0D7F80CC0A4EB0C0C2D
:1093E000BCF5FA7F1FD914264E43AF19C7E9010413
:1093F000A851012038741420414368188668C4605D
:10940000A41BC72C466817D86958B14214D0C8218C
:109410005443B4FBF1F401202146A21A1E601971D5
:109420005A719871F0BD55F806C084451EBFC7F843
:1094300004C0A851BC60DEE700210A460846EDE7FB
:10944000742500209C2F0020142370B504460025AD
:1094500003FB0106B44201D1284670BDA368002B6E
:10946000FAD0E3681BB90135ADB21434F2E798477E
:109470000028F8D1F9E700000A4B588A80B278B189
:10948000188980B260B11A89188992B2052A94BFEE
:1094900042F210734EF6602380B288BF05385843FD
:1094A000704700BF6C2E002038B5114A538A9BB21A
:1094B0000BB9002038BD13899BB2002BF9D00D4A9F
:1094C0000D4B14681B6853EA04020FD00B4D29683A
:1094D000C91AFFF7D1FF8142EBD92868041BFFF7B7
:1094E000CBFF844294BF00200120E3E70120E1E7A5
:1094F0006C2E0020082F00200C2F00209C2F002015
:10950000012809D80C4B5B8C9BB2002B0CBF4FF48D
:10951000BE704FF433707047A0F11603DBB21C2B02
:1095200004D8064A22FA03F3DB07EBD4044B03EB1F
:10953000C0035888704700BF6C2E002001005415EE
:109540000600002038B5094B054633F83040FFF7D8
:10955000D7FF884228BF084680B2A14228BF0446F0
:10956000034800EB4500848038BD00BF06000020A2
:109570006C2E002030B50D4B0D4D03EB40039A8847
:1095800005EBC004618892B28A4203D135F83020DD
:109590009A8006E0A28898888C1A80B2A04201DBEB
:1095A000998030BD99880A44F2E700BF6C2E0020F4
:1095B000060000201421D0E9003212881B6801FB4C
:1095C00002335A6802B11047187C372801D8FFF7D8
:1095D000D1BF704701207047B8B91C4B5B8C9BB260
:1095E000834214BF4FF433724FF4BE72174B1849C5
:1095F00003EB400301EBC0019B8889889BB2521AA0
:109600009342D4BF002001207047162809D10F4B88
:109610005B8C9BB2002B14BF4FF433724FF4BE72BD
:10962000E4E7012809D1094B5B8C9BB2002B0CBFEE
:109630004FF496724FF41172D8E71F2804D0044BF0
:1096400003EBC0035A88D1E7012070476C2E00203D
:1096500006000020034B588980B2003818BF012053
:10966000704700BF6C2E00200E4B198E5B8C89B2A8
:109670009BB24BB181B1143189B2B1F5337F28BFB0
:1096800000211620FFF75EBF49B10A3189B2B1F55A
:10969000BE7F88BF1946F4E74FF4F071F1E7FA2175
:1096A000EFE700BF6C2E0020034B588A80B20038D1
:1096B00018BF0120704700BF6C2E00200A4BD988CC
:1096C0005B8C9BB243B1143189B2B1F5117F88BF75
:1096D0003C210120FFF736BF0A3189B2B1F5967FF0
:1096E00088BF0A21F5E700BF6C2E00200F4A02EB6D
:1096F00040039B88528C9BB292B27AB103EBC301B8
:109700000523B1FBF3F120310A2389B2B1FBF3F158
:1097100001EB8101490089B2FFF714BF0922203B08
:1097200003EB830393FBF2F1EEE700BF6C2E002006
:1097300008B50F20FFF71EFF1620FFF7D7FF002008
:10974000FFF7D4FFBDE808400120FFF7CFBF0000BE
:10975000034BD88A80B2003818BF0120704700BF81
:109760006C2E0020034B188D80B2003818BF0120EA
:10977000704700BF6C2E002001220D4B1A6102229F
:109780001A610F2200BF013AFCD14FF400321A6176
:109790000F2300BF013BFCD14FF48033044A136117
:1097A0000F2300BF013BFCD102231361704700BFB0
:1097B000000C01404FF40033094A13610F2300BF2E
:1097C000013BFCD1012313610F2300BF013BFCD1FE
:1097D0000222034B1A610F2300BF013BFCD17047EB
:1097E000000C014002230A4A13610F2300BF013B12
:1097F000FCD1012313610F2300BF013BFCD14FF4C7
:109800008032034B98681A61C0F34000704700BF74
:10981000000C01400A4B80B102221A610F2300BFE5
:10982000013BFCD10123064A13610F2300BF013B1A
:10983000FCD14FF48033136170474FF40032ECE7F2
:10984000000C014010B50821044604F080000139E5
:10985000FFF7E0FF11F0FF014FEA4404F5D10222C7
:10986000044B1A61FFF7BEFF80F0010000F0010019
:1098700010BD00BF000C0140014B1868704700BFCD
:109880009C2F002090F83C30F0B5012B24D00368C9
:10989000184E1A6AB34222F001021A621A6A5D680F
:1098A0009C6924F0730444F0600416D022F0020294
:1098B00049685D609C6159631A629A6942F00802C6
:1098C0009A619A6922F004029A619A6942F004024C
:1098D0009A61002380F83C30F0BDCE6822F00A0285
:1098E000324325F44075D1E905673E4322F0040276
:1098F0003543DDE7002C014070B569B947F6F872D1
:109900001C4B9B68C3F38F03934205D91A4A137803
:10991000FF2B1CBF01331370184C2378F3B9184A7E
:10992000184D13688342C8BF1060174BB9B919604E
:109930002B685B1A44F620618B420FD9134B1268D7
:109940001B6893420ADD01219B1A022B217005DC62
:10995000094A1378FF2B1CBF5B18137070BD0B49AD
:109960000E688642B8BF086019680029E0D12968EE
:10997000DDE700BF582E0020402E00205C2500208F
:10998000C80100209C2F00205825002054250020CD
:10999000F8B5044640B94FF0500383F31188BFF384
:1099A0006F8FBFF34F8FFEE7016C41B14FF0500353
:1099B00083F31188BFF36F8FBFF34F8FFEE7FFF77D
:1099C00065FCFEF729FCA26BE36B9A4280F0818074
:1099D000226CA66B002A6DD12368ABB10023626AAA
:1099E0000136A663002A72D0206BFFF719FA00280F
:1099F0006FD04FF0E0234FF08052C3F8042DBFF337
:109A00004F8FBFF36F8F64E0A5681DB9002300225C
:109A1000A260E4E7314B1B689D4208D04FF0500331
:109A200083F31188BFF36F8FBFF34F8FFEE7AB6DEA
:109A300043B94FF0500383F31188BFF36F8FBFF327
:109A40004F8FFEE7E96A6A6D013B9142AB65DDD05D
:109A5000002BDBD12F1D3846FFF7CBF9204930B959
:109A60000122E86A0B68824023EA02030B606B6DF7
:109A7000D1F800C0C3F10702AA61012202FA03F083
:109A800040EA0C0008601420EB624343154901EBE7
:109A9000030CDCF80400A860D0F808E0C5F80CE07E
:109AA000CEF804708760C858C5F814C01044C85078
:109AB0001346ACE7606807F0CAFC6368226C134485
:109AC000A2686360934289D32368636086E7002BB2
:109AD0008FD1BDE8F840FEF7B9BB00BF3830002099
:109AE000DC30002050300020482373B50193019BE7
:109AF0000446482B08D04FF0500383F31188BFF37E
:109B00006F8FBFF34F8FFEE70021019B0123206081
:109B1000C0E90F31FEF780FBD0E90F356B430268D7
:109B20008163D6185B1B42601A44FF23C2604FF06A
:109B3000FF3280F8443080F8453000F11803C0E966
:109B400006234361036200F12C03C0E90A32C0E935
:109B50000C33866001614162FEF778FB8160016031
:109B6000C160FFF715FF204602B070BD014B1868B9
:109B7000FFF70EBFA42000202DE9F7438046DDE962
:109B80000A54894617461E4645B94FF0500383F3E1
:109B90001188BFF36F8FBFF34F8FFEE744B94FF0CB
:109BA000500383F31188BFF36F8FBFF34F8FFEE72E
:109BB00064230193019A9A4208D04FF0500383F333
:109BC0001188BFF36F8FBFF34F8FFEE70021204650
:109BD000BF00019B07F0E6FB284625633A46A52116
:109BE00007F0E0FB256BB9F1000F0FD009F1FF334F
:109BF00004F1330209F11F0113F8010F02F8010FFC
:109C000008B18B42F8D1002384F85330062E08D9CE
:109C10004FF0500383F31188BFF36F8FBFF34F8F63
:109C2000FEE700234FF08071043FEA19E6626665A3
:109C300022F00702C6F107066361A3622461A661F0
:109C4000646242F8041C28F0010142F8081C3E49F5
:109C500042F8203C42F80C1C403A2260FEF7DCFA45
:109C60003A4B3B481A6801321A600268002A60D1F8
:109C700004601B68012B2AD14FF0FF361546354B87
:109C80000132072A43E90136C3E9013343F8085C8E
:109C900003F11403F4D1304A02F10803C2E901369A
:109CA000C2E903332D4B156003F10801C3E9011626
:109CB000C3E903112A491D6001F108070D60C1E9DC
:109CC0000176C1E9037727490A60274A1360274ACA
:109CD000274913680D68013313600122E36A261DCA
:109CE0009A402A430A6014214B43224AD5186968D6
:109CF000A1608F68E7607E608E60D1586561013138
:109D0000D150FEF7A3FA1C4B1B6873B10368DA6AE3
:109D1000E36A9A4209D24FF0E0234FF08052C3F831
:109D2000042DBFF34F8FBFF36F8F204603B0BDE804
:109D3000F083114B1B68002BC9D10368DA6AE36A10
:109D40009A4298BF0460C2E7E3810008642F0020B4
:109D50003830002058300020482F0020342F0020B9
:109D60003C300020302F00202C2F00205C2F0020C2
:109D7000DC30002050300020602F002037B5D0E9C3
:109D800000148569B0F90830026901954069842B97
:109D9000009008BF0023204618BF0333FFF7ECFEF6
:109DA00003B030BD034B4FF400720021186807F078
:109DB000F9BA00BF142F00204FF0E0254FF0805675
:109DC00008B5064C2368012B05D9C5F8046DBFF30F
:109DD0004F8FBFF36F8F06F0E1FEF3E750300020A6
:109DE00038B505460C46FFF7DDFF284606F032FD84
:109DF00041F28830054B064A1B6812689B1A834261
:109E000098BF002C14BF0120002038BD9C2F0020DB
:109E1000082F002010B4084B084C588C0023DFF8A2
:109E200020C080B298420CBF6046204610BCFF2282
:109E3000012106F0E9BC00BF6C2E0020941401083B
:109E40009D14010870B504460D46FFF7ABFF22468E
:109E50000123117849BB013B03EB43039B009BB2F9
:109E6000802B2CD9194A928C92B2012A14BF142249
:109E70000A22B5FBF2F103F1800209B291FBF2F084
:109E800002FB10117F291FDD8B42A8BF0B46104A31
:109E9000C3F18003138000230E4A20461380012162
:109EA000BDE87040FF2206F0AFBCF02902D80132B5
:109EB0000133CEE751780029CDD00232F8E7C3F163
:109EC000800203EB6203E2E78023E0E76C2E0020D0
:109ED0006A2E0020682E00200B4BB3F850200B4B4D
:109EE00092B2012A1B7805D0022A08D0FF22002155
:109EF000074802E0FF220021064806F085BCFF2249
:109F000000210548F9E700BF6C2E00206A2E0020D2
:109F1000F1360108E4360108FC3601080B4BB3F8B2
:109F20007030DBB2022B0DD0032B0DD0084AA2F10A
:109F30000B00012B08BF1046064BFF2200211B78A7
:109F400006F062BC0448F7E70448F5E76C2E0020F1
:109F5000113701086A2E00201C3701082737010835
:109F6000084BFF22198A002389B2012906D0022951
:109F70004FF0010104D0044806F046BC0348FBE75B
:109F80000348F9E76C2E00206D3801086F3801088E
:109F90007138010840F2D36240F2CF6010B4074B31
:109FA000074C9B8C01219BB2002B18BF104600234D
:109FB0002044FF2210BC06F027BC00BF6C2E0020FE
:109FC000A431010870B50A26B0FBF6F5044601235A
:109FD000A8B20022022106F04FFC0023FF221946FE
:109FE000094806F011FC012306FB15401946002222
:109FF00080B206F041FCBDE870400023FF22194604
:10A00000024806F001BC00BF96140108981401082C
:10A0100070B50A260446B0FBF6F5B4F57A7F4FF02A
:10A0200001034FF00002A8B20AD3032106F024FC7A
:10A03000BDE870400023FF221946094806F0E4BB42
:10A04000022106F019FC0023FF221946054806F0FC
:10A05000DBFB012306FB15400022194680B2E5E731
:10A060009A1401089614010810B50C4A53899BB242
:10A070007BB101235089194602301A4680B206F09E
:10A08000FBFB0023FF2201210548BDE8104006F03C
:10A09000BBBBFF2201210348F7E700BF6C2E002065
:10A0A000791501089C14010870B501230A240E4D8E
:10A0B0001A46A889194680B2B0FBF4F006F0DCFB22
:10A0C0000023FF220121094806F09EFBA88980B2E7
:10A0D000B0FBF4F304FB1300BDE87040012380B231
:10A0E0001A46194606F0C8BB6C2E00206E150108F2
:10A0F000034B0221588F012380B21A4606F0BCBBE5
:10A100006C2E0020034B0221188F012380B21A46C7
:10A1100006F0B2BB6C2E0020034B0321D88801232C
:10A1200080B21A4606F0A8BB6C2E0020034B588D57
:10A13000012380B21A46194606F09EBB6C2E002001
:10A14000034B988D012380B21A46194606F094BB42
:10A150006C2E002007B5054B0021009320235E20C4
:10A160001A4606F05FFA03B000BD00BF14430108B1
:10A17000054BB3F8440080B220B1012302211A46F6
:10A1800006F07ABBFFF7E6BF6C2E0020064A138E5E
:10A190009BB233B10123108E03211A4680B206F020
:10A1A0006BBBFFF7D7BF00BF6C2E00200C4B198B89
:10A1B00089B202290AD003290DD0012901D0FFF765
:10A1C000C9BF0023FF22074806F01EBB0023FF2261
:10A1D00001210548F8E70023FF2201210348F3E7A6
:10A1E0006C2E002000330108793801087B38010803
:10A1F000094BD98C89B2012903D0022906D0FFF777
:10A20000A9BF0023FF22054806F0FEBA0023FF2263
:10A2100001210348F8E700BF6C2E00207D380108BB
:10A220007F380108064A538A9BB233B1508A012213
:10A230000023114680B206F01FBBFFF78BBF00BFA3
:10A240006C2E002010B5154B1A8992B21AB9BDE8D0
:10A250001040FFF77FBF1A89188992B2052A10D8DB
:10A26000012300EB800040001A46022180B206F074
:10A2700003FB0023FF2201210948BDE8104006F03E
:10A28000C3BA012305381A46022180B206F0F4FA57
:10A290000023FF2201210348EFE700BF6C2E0020BE
:10A2A0009F140108A114010810B50B4A538B9BB2EF
:10A2B0001BB9BDE81040FFF74DBF0123508B0221B1
:10A2C0001A4680B206F0D8FABDE810400023FF22FB
:10A2D0000121024806F098BA6C2E0020A114010852
:10A2E0000C4BD98A89B2022908D003290BD0012945
:10A2F0000ED10023FF22084806F086BA0023FF2271
:10A3000001210648F8E70023FF2201210448F3E772
:10A31000FFF720BF6C2E0020733801087538010844
:10A320007738010810B50B4A938E9BB21BB9BDE874
:10A330001040FFF70FBF0123908E03211A4680B211
:10A3400006F09AFABDE810400023FF2201210248DE
:10A3500006F05ABA6C2E0020A314010870B5134DF4
:10A360002B8D9BB2EBB10A240123288D1A4680B2B3
:10A370001946B0FBF4F006F07FFA0023FF2201211A
:10A380000B4806F041FA288D80B2B0FBF4F304FBD1
:10A390001300BDE87040012380B21A46194606F04A
:10A3A0006BBABDE87040FFF7D5BE00BF6C2E002031
:10A3B0006E15010807B5154AB2F84A309BB2052B55
:10A3C00007D0062B0FD083B903B05DF804EBFFF77D
:10A3D000C1BE0F4B0093202300211A465E2006F0D9
:10A3E00021F903B000BD0B4BF4E70123B2F84A009A
:10A3F00019461A4680B206F03FFA0023FF220121D7
:10A40000054803B05DF804EB06F0FEB96C2E0020A1
:10A4100094420108144201089F140108284B37B5E3
:10A4200003EB40020446B2F8320103F59E73184470
:10A4300006F010FA234AD38A9BB2022B20D0032BBA
:10A440000CBF4FF496704FF4FA70D18A1E4B89B24C
:10A45000C9B119681D4DA1421D4902D01C602B686D
:10A460000B602B680968928A5B1A92B2B3FBF0F317
:10A470000AB30322B3FBF2F202EB42029B1A0AE098
:10A480004FF4C870E1E78D211960D38A9BB2B3FA0B
:10A4900083F35B095B00FC225443542202FB034418
:10A4A0000C4B15221C44002120236920009406F047
:10A4B000B9F803B030BD022B28BF0223EBE700BF81
:10A4C000683001086C2E0020000000209C2F002026
:10A4D000F81F0020283D01080020FFF79FBF012042
:10A4E000FFF79CBF0220FFF799BF0320FFF796BF3D
:10A4F0000420FFF793BF000070B5104B0021D88DEA
:10A500000A2680B206F0B2FBB0FBF6F50446012342
:10A51000A8B20022022106F0AFF90023FF2219465B
:10A52000074806F071F9012306FB1540BDE87040AD
:10A530000022194680B206F09FB900BF6C2E0020A1
:10A540009614010810B50B4B0146D88D80B206F069
:10A550008DFB044606F010FC48B16443B4FBF0F0F8
:10A56000054BC0EB00201B88B0FBF3F010BD64204E
:10A57000FCE700BF6C2E00206C2F002010B5041EDD
:10A58000084606DC084BD88D80B206F06FFB002031
:10A5900010BDFFF7D7FFC4EB0424B4FBF0F0FF2895
:10A5A00028BFFF20C0B2F3E76C2E002010B50121B8
:10A5B000FFF7E4FF134B902804461A781BD90AB121
:10A5C00000221A7014211A780F4B002019800F4BAB
:10A5D0001A700F4B1C70FFF7B5FFFF23E8214443AF
:10A5E0000C4AB4FBF3F413684B43182101FB04330A
:10A5F0001B0A136010BD6F28E4D8002AE2D10122A3
:10A60000DFE700BF04000020722F00206F2F002022
:10A61000702F00203C2E00206328F7B50B4615460E
:10A6200023DC0A28B4BF01210221114F114E01EB96
:10A6300041043B80002203EB440480B201233580B7
:10A6400006F01AF90C4BE4B22046009303220823CB
:10A6500069B205F0E7FF00200434E4B23C803580A5
:10A6600003B0BDE8F04006F06FBA0321DDE700BF9C
:10A670006A2E0020682E002076470108062008B5C3
:10A68000FEF778FF054B188A80B210B1012800D080
:10A6900008BDBDE8084005F069BF00BF6C2E002072
:10A6A000192310B5094CB4F8480080B2B0FBF3F0A0
:10A6B0000123013080B21A46194606F0DDF8B4F8DD
:10A6C0004800BDE81040C0B205F088BF6C2E0020E5
:10A6D00010B5064C236823B905F0E0FC08B101234E
:10A6E00023602068431E5842584110BDE41F0020DB
:10A6F00038B5FFF7EDFF024608B3144B144DB3F81D
:10A70000443095F83110E1B995F8301001F0FF00B0
:10A71000A1B995F83411192915D095F834110C29DF
:10A7200011D013F0FF0409D02B6998476B6CC01A45
:10A7300064236343984294BF0020012038BD012068
:10A74000FCE70020FAE71046F8E700BF6C2E002077
:10A75000282A00201FB5034620240846114600225F
:10A76000CDE90124022218240092044A04FB0323A9
:10A770000C2206F085F904B010BD00BF5F17010878
:10A780002DE9F0476FF017030746FEF702FE43433B
:10A79000483301EB63010328164605460CB220D06E
:10A7A000022814BF4FF001094FF00A094FF00008CA
:10A7B0004FF00A0A97FBF9F090FBFAF30AFB13003B
:10A7C00008F1010821463246C0B25FFA88F8FFF767
:10A7D000C1FF18344545B9FBFAF924B2EAD1BDE806
:10A7E000F0874FF06409E1E72DE9F04F87B00E469E
:10A7F00004AB114620228246FEF7E2FD002134B26E
:10A80000502220232046009106F0A0F89DF8162043
:10A81000BAB921465046FFF7B3FF344B06F1460064
:10A82000009303220823002105F0FCFE0020304B9A
:10A830004A361E802F4B188007B0BDE8F04F06F057
:10A8400083B95046FEF7A5FD049B074618460393BF
:10A85000FEF79FFD874208D09DF914202146184637
:10A86000FFF78EFF9DF91520D3E76FF017047C43A7
:10A87000483406EB6404032F24B229D0022F14BFFE
:10A880004FF001084FF00A084FF0000B4FF00A0993
:10A89000039B9AFBF8F593FBF8F090FBF9F209FBA8
:10A8A000120095FBF9F209FB1255C0B2EDB2A842B5
:10A8B00011D1002221460BF1010BFFF74BFF5FFA8C
:10A8C0008BF218349742B8FBF9F824B2E0D8A4E729
:10A8D0004FF06408D8E721469DF91420FFF73AFFAE
:10A8E000214628469DF91520E5E700BF7647010877
:10A8F0006A2E0020682E00202DE9F0431546102214
:10A9000089B004460E460DEB0200002106F04AFD18
:10A9100000224FF0030EDFF860C004AF00200146B4
:10A920001CF8013B16F80390430001330EFA03F3C1
:10A9300029FA00F80B4318F0010F9BB200F1010057
:10A9400018BF19460728EFD10132D2B207F8011B10
:10A95000082A4FEA1121F971E0D11823CDE901232A
:10A9600001232046009305F1080104AB06F088F8A6
:10A9700009B0BDE8F08300BF144401082DE9F84F89
:10A9800003460846FEF705FD054618469246FEF7C3
:10A9900009FD032D8846044620D0022D14BF012650
:10A9A0000A260A274FF0060B04EBC505DFF83090A6
:10A9B0002DB298FBF6F191FBF7F307FB131120463C
:10A9C000C9B2083452460BFB019124B2FFF794FF41
:10A9D000AC42B6FBF7F6ECD1BDE8F88F6426E0E7B1
:10A9E000F115010808B506F0F3FB38B1094B588999
:10A9F00080B2003818BF0120800008BDFFF768FE54
:10AA000008B90120F9E7FFF773FE0028F9D0032009
:10AA1000F3E700BF6C2E00202DE9F74F0746FFF744
:10AA2000C1F9632F00F38D800A2FB4BF01210221E9
:10AA30006FF0170300244B43434E4833434D5B10E4
:10AA40003380B8B2012302222C8005F015FF404B61
:10AA50002146032200934620082305F0E3FDFF274B
:10AA60004A234FF05308204633802C8006F06CF8C0
:10AA70002146202301225020009705F067FF23463E
:10AA8000214602223348A6F800802C8005F0BCFE47
:10AA9000314B2246D888622180B2FFF7BDFD0823E2
:10AAA0004FF01009A6F800802B80FFF725FD234604
:10AAB0003A462146294805F0A7FEA6F80080A5F8E9
:10AAC0000090FFF78FFFDFF898C023465CF8200066
:10AAD0002146032205F098FE18234FF00A0B2B8025
:10AAE000204BA6F80080D3F800A02246BAFBFBF862
:10AAF00001231FFA88F0022105F0BEFE23463A46E4
:10AB00002146194805F080FE01230BFB18A02246C0
:10AB1000194680B205F0B0FE3A4623462146134856
:10AB200005F072FE7423214650463380A5F800904C
:10AB3000FFF724FD05F084FF03B0BDE8F04F05F0FA
:10AB400045BC032174E700BF6A2E0020682E002058
:10AB500076470108423801086C2E0020981401083D
:10AB6000FC4A01083C2E0020961401089A140108A2
:10AB70002DE9F04706F02CFB274DF8B16B899BB20D
:10AB8000E3B16C89E88D002180B206F06FF80234E1
:10AB9000E4B2B0FBF4F0AB899BB2984238BFA8890D
:10ABA000AB8938BF80B29BB2C01A092828BF0920E0
:10ABB000BDE8F0470430C0B205F0C4BEE88D002106
:10ABC00080B206F053F80A25441DB4FBF5F45E2864
:10ABD000124FA4B209D808233B80012320461A460D
:10ABE0001946BDE8F04705F047BE0123B4FBF5F672
:10ABF000DFF82C801A4619463046B8F9009005F067
:10AC00003BFE10233B80012305FB16401A461946E4
:10AC1000A8F8009080B2E4E76C2E0020682E002097
:10AC20006A2E0020C0F11100C0B205F08BBE0000FA
:10AC3000034B988B80B2003818BF0120FFF7F2BF9A
:10AC40006C2E0020034BD88E80B2003818BF012034
:10AC5000FFF7E8BF6C2E0020044BB3F8720080B2FF
:10AC6000003818BF0120FFF7DDBF00BF6C2E0020A9
:10AC7000034B988A80B2003818BF0120FFF7D2BF7B
:10AC80006C2E002010B5094CB4F8460080B2003894
:10AC900018BF0120FFF7C6FFB4F84600BDE810401A
:10ACA00080B2003818BF012005F0AEBC6C2E002029
:10ACB000034BD88B80B2003818BF0120FFF7B2BF1A
:10ACC0006C2E0020034B188C80B2003818BF012076
:10ACD000FFF7A8BF6C2E0020044BB3F84C0080B2E5
:10ACE000003818BF0120FFF79DBF00BF6C2E002069
:10ACF0002DE9F04778223149314806F07FFB0028E2
:10AD000059D005F04BFF35222E4BDA60FDF7C6FC1B
:10AD10002D4A116813685B1A012BFBD92B4C05F0E7
:10AD20003DFF237E012B18D001232376FDF7C6FCBF
:10AD300088B9244DE0612B6943F002032B61204B5D
:10AD40006B612B6943F040032B61FDF7B7FC2B6966
:10AD500023F002032B6100232376FDF79FFC4FF0C5
:10AD60000109164F164D174EDFF8648005F016FFE7
:10AD7000237E012B15D0B7F800A084F81890FDF7BA
:10AD80009DFC60B9E061336943F001033361A5F8CC
:10AD900000A0FDF793FC336923F001033361002326
:10ADA00023760235454507F10207DFD1054A1369CD
:10ADB00043F080031361BDE8F08700BF6C2E0020D4
:10ADC00000FC010800200240982F0020782F00206E
:10ADD00078FC0108F8B545F2AA552A4C23889BB2A5
:10ADE000AB4248D07822FF21204606F0DBFA2580CE
:10ADF0000125636F01331CBF4FF0FF336367638826
:10AE000018BF01259BB2372B08D84FF6FF72638815
:10AE10009BB2372B31DD38230125638000231A4A8A
:10AE200004EB4306B088178880B287424FEA43019B
:10AE300004D8B088568880B2864203D20125D088D3
:10AE4000214488800133382B02F10802E8D1002127
:10AE5000C8B2FEF755FB04EB4102938801319BB267
:10AE6000834284BF012590803829F1D10DB1FFF7CD
:10AE70003FFF2846F8BD0025BBE704EB43018A806D
:10AE80000133C6E76C2E0020060000202DE9F041BA
:10AE9000AB4C88B094F8346194F83431F6B20F2B8F
:10AEA000DDB200F0928263D8072D00F053811BD8E9
:10AEB000032D00F0118108D8012D00F04283022DEE
:10AEC00040F0168305F0C4F9AAE1052D00F00881D1
:10AED000062D07D1226C236C23EA02032364930618
:10AEE00040F10E810523F8E00B2D00F0A8812ED84B
:10AEF000092D00F079810A2D40F07081236C03F058
:10AF00007F43236405F000F9002800F071818D482B
:10AF100005F074F9B4F84A3003F01F02032A40F038
:10AF20006D81B4F8163103F4E043A3F500577B427A
:10AF30007B4184F8723194F872311BB123699847D0
:10AF4000C4F83C0141F2883203210B20D5E00D2DDD
:10AF500000F033820E2D40F09F81E18D636901F096
:10AF6000C0017F2994BF002101217648984729E23A
:10AF7000172D00F07B825DD8132D00F03D820ED896
:10AF8000112D00F03082122D40F01F83E38D0F2130
:10AF900043F00D0313206B4AA4F84A3021E1152D2C
:10AFA00000F05282162D40F03182B4F84C50690501
:10AFB00000F163824FF01A08C5F3C32508FB05F8BA
:10AFC000002D40F07C82604B03F1F60203F1180C77
:10AFD000174618685968083303C763453A46F7D1DE
:10AFE000186838609B88BB80B4F84A70C7F3023396
:10AFF00008EB8308B4F84231A8F10208C3F3080350
:10B00000984580F269821A220021504806F0CAF958
:10B01000E38D07F01F0701351F43ED0247F410478A
:10B0200045F404450F211720464AA4F84A70A4F8B5
:10B030004C50D6E01B2D00F09F822CD8192D00F02B
:10B040004D821A2D40F0E580236998474049C4F8A5
:10B050003C01E36901F12C009847002800F08A8246
:10B06000D4F818311B0F04EB8303D3F8403103F0FD
:10B070004042B2F1404F40F07B8213F0405F0CBF82
:10B0800001230023E28D84F83531B4F816311343DF
:10B09000A4F816319EE01C2D00F083821D2D40F097
:10B0A000948205F031F8002800F01F82254805F051
:10B0B000A5F8B4F84A3003F01F03102BF1D194F82F
:10B0C0004E30042BEDD1002384F8313023699847AA
:10B0D0000C25C4F83C0108E2042384F83431A1E0D3
:10B0E000002384F8303084F835312364236998478D
:10B0F00042F2107260642321062005F015F88FE0FB
:10B1000005F002F800283FF4EDAE0E4805F076F8A1
:10B11000B4F84A2002F01F03012BF1D112F4E04FE2
:10B12000EED0E38D13F0C00F08D102F0C0027F2AE9
:10B130008CBF43F0800343F04003E3850723CCE753
:10B14000282A0020702A0020722A0020762A002057
:10B150003C2B0020FF2384F833300023B4F84A202E
:10B16000A849C2F3023293420CD051F8040F0133C4
:10B1700000F04045B5F1404FF5D110F0405FF2D1FD
:10B1800084F83330E36CA049C3F3C062C3F3C05307
:10B1900084F82C20A1F1CC0084F87131A369984780
:10B1A000002800F0E781E38DB4F816211A4303F07C
:10B1B000C003802BA4F816210CD1D4F81831002B31
:10B1C0004FEA137208DB94F833309A4204D3012318
:10B1D00084F83531082380E70023F9E70F2109209F
:10B1E000894A04F0C3FF1BE0236C03F07F43236410
:10B1F00040F68C2240F603010A207EE70D2A00F07B
:10B20000B08003F01703042B7FF47CAE94F8303049
:10B210002BB14FF0FF3243F6FF710C206DE7052094
:10B2200084F8340194F834319E427FF433AE94F8BC
:10B230003431002B7FF42EAE08B0BDE8F081236CD2
:10B2400003F07F43236404F05FFF08B9122344E74F
:10B250006C4804F0D3FFB4F84A3003F01F03062B08
:10B2600017D1002384F8313094F8713163B194F828
:10B2700070314BB194F8723133B9012384F8313015
:10B28000236C43F480532364012384F830300C236F
:10B2900023E7012BD7D151E7236C226C5D0622EA0C
:10B2A000030222647FD498067FD413F4C07F7ED13A
:10B2B000D9047ED49A047ED49F07AAD504F024FF33
:10B2C0000028A6D04F4804F099FFB4F84A3003F0A4
:10B2D0001F020F2A13D113F4E04FEFD1E18D01F0DB
:10B2E000C0018029EAD11D0453D5B4F84C10C1F334
:10B2F000080119294DD9112A08BF162050E0052A46
:10B3000003D113F4E04FD9D0E8E7092A03D113F4AD
:10B31000E04FE3D106E0072AF9D00A2A04D113F45A
:10B32000E04F20D115207BE70B2AF0D0022AF9D07C
:10B33000042A03D113F4E04FD0D0F3E7012A04D15B
:10B3400013F4E04FCAD007206AE7082A04D113F4A7
:10B35000E04FC3D10E2063E70D2ABFD113F4E04FB5
:10B36000BCD111205CE794F84A30032B03D10123B0
:10B3700084F87231A2E7042B04D100230C2084F856
:10B3800072314DE7052B99D10023062084F87231E4
:10B3900046E723F47E635B045B0C102B08BF182088
:10B3A00018BF15203CE708203AE70F2038E70D20AA
:10B3B00036E71B2034E71C2032E7E38D43F0070318
:10B3C000A4F84A300F210F4A49E094F832305BB2BA
:10B3D000022B06DC94F83230013384F8323010232B
:10B3E0007BE6192379E6E38D6A4643F00D030F21CE
:10B3F0000520ADF80230F4E640F68C2240F6030159
:10B4000014207AE6702A00203C2B0020236C03F0E5
:10B410007F43236404F078FE08B90F235DE66C488F
:10B4200004F0ECFEB4F84A3003F01F02032A03D103
:10B4300013F4E04FF1D155E523F47E635B045B0C1C
:10B440000D2BEAD1112348E6E38D03F0C002402A18
:10B4500007D143F00403A4F84A3012215C4A0C20BF
:10B46000BFE6802AF9D143F01003F4E7226C236C85
:10B47000900723EA0203236405D44FF0FF3243F61A
:10B48000FF71172039E604F03FFE0028F5D0504840
:10B4900004F0B4FEE38D03F0C003802BF3D1B4F9C4
:10B4A0004A20B4F84A30002AEDDAB4F84C20C2F34E
:10B4B0000802192AE7D903F01F03112B1CE7B4F87F
:10B4C0004A2008F5A270C2F3023292004149023AC2
:10B4D000204405F0BCFF87E51A20A1E600234FF4C5
:10B4E000FA6084F83030236A984784F8345199E63A
:10B4F00023699847E36B984282BF236C43F400634F
:10B500002364236C13F4006F236C0ED003F07F438D
:10B51000236494F83430102B7FF698AE94F83430CE
:10B52000142B94BF03231223D7E5DA073FF557AF57
:10B53000236CA26B13403FF4D0AD94F83430DBB2EF
:10B54000CBE5236C226C22EA03029B05226408D51A
:10B5500004F0DAFD00287FF4B5AC02217822084619
:10B56000CBE5236C43F00803236494F8360057E6D8
:10B57000002387E50623B0E523699847E38DC4F8E7
:10B580003C0143F4805343F00A03A4F84A3094F892
:10B5900070311B0443F08073E36413E7002004F070
:10B5A0002DFE04F0B1FD0028F8D1012384F83130DC
:10B5B000E38D0C2143F4104343F01003A4F84A3008
:10B5C000054B1D20024AE3640BE6032385E500BF1B
:10B5D000702A0020762A002002800300000000006C
:10B5E000074B19680868B0E8F00F80F30988BFF3CB
:10B5F0006F8F4FF0000080F311884EF00D0E7047F2
:10B6000038300020000000000000000000000000B2
:10B61000EFF30980BFF36F8F0D4B1A6820E9F00F2D
:10B62000106008B54FF0500080F3118800F08EFFD5
:10B630004FF0000080F31188BDE8084019680868E1
:10B64000B0E8F00F80F30988BFF36F8F704700BF39
:10B650003830002008B5FDF719FE012813D04FF04F
:10B66000500383F31188BFF36F8FBFF34F8FFDF744
:10B6700091FC28B14FF0E0234FF08052C3F8042D25
:10B68000002383F3118808BD04224349F0B4CE6B34
:10B69000086C35680B6802FA00F72F421C6828D046
:10B6A000670726D53D498B4216D03D4A934215D0B7
:10B6B0001432934214D01432934214D01432934271
:10B6C00014D01432934214BF4FF080634FF48003C0
:10B6D000344A5360F0BC70471346F9E74023F7E75C
:10B6E0004FF48063F4E74FF48043F1E74FF4802395
:10B6F000EEE7022282402A4239D0A70737D51A68DE
:10B70000900606D41A6822F00A021A60012281F813
:10B710002120224A93421DD0143293421CD014326D
:10B7200093421BD0143293421BD0143293421BD04D
:10B730001432934214BF4FF000734FF40013194AB0
:10B740005360002381F820308B6A002BC2D0F0BCFC
:10B75000114818470223F2E72023F0E74FF4007363
:10B76000EDE74FF40053EAE74FF40033E7E7082230
:10B7700082402A42AED02207ACD51A6822F00E02CF
:10B780001A60012303FA00F070608B634FF480733A
:10B790000B840B6BD9E700BF183100200800024072
:10B7A0001C00024000000240F8B5674803685A6870
:10B7B000910623D51A68920720D5826AD7065EBF04
:10B7C000826A42F4007282629A6802F46022B2F5E0
:10B7D000602F10D1C26872B95A6822F020025A60F4
:10B7E000826A22F480728262826AD6045EBF826AB2
:10B7F00042F0010282626FF012021A605A68150666
:10B8000040F192801A68540740F18E80826AD10616
:10B810005EBF826A42F4005282629A6802F4E04299
:10B82000B2F5E04F0AD05A68520516D49A6802F46D
:10B830006022B2F5602F10D1C26872B95A6822F046
:10B8400080025A60836A23F480538362836ADB0533
:10B850005EBF836A43F0010383623C4B1968002991
:10B860005ED0FCF701FDEFF311844FF0500383F33A
:10B870001188BFF36F8FBFF34F8F022391F86020C1
:10B8800081F86030CB6D012A03F10103CB6502D052
:10B8900084F3118844E08B6A0BB1FCF7B3FC2C4BAA
:10B8A0001B68002B41D1D1E902524B69AA608D6817
:10B8B0000E1D55605A68274DB24208BFCA682F68EE
:10B8C00008BF5A601A68013A1A600122CB6A9A408E
:10B8D0003A432A6014256B431F4AD7187D688D6050
:10B8E000D5F808C0C1F80CC0CCF80460AE604F6158
:10B8F000D5580135D550194BCA6A1B68DB6A9A4284
:10B90000C6D90122164B1A6084F311884FF0E02348
:10B910004FF08052C3F8042DBFF34F8FBFF36F8FEA
:10B920006FF00C0203681A60F8BD0E4B01F11805A8
:10B930005A68CA6196680E62756095601A688B6273
:10B9400001321A60D7E700BFE8300020E430002061
:10B95000E0300020DC300020503000203830002063
:10B96000343000203C300020F8B53D4B5A691206B7
:10B970001DD580225A613B4B1968C1B1FCF774FC9C
:10B98000EFF311804FF0500383F31188BFF36F8FF3
:10B99000BFF34F8F022391F8602081F86030CB6DA8
:10B9A000012A43F00103CB6502D080F31188F8BD72
:10B9B0008B6A43B14FF0500383F31188BFF36F8F4D
:10B9C000BFF34F8FFEE7284B1B68002B3AD1D1E91C
:10B9D00002424B69A2608C680D1D54605A68234C6A
:10B9E000AA4208BFCA68266808BF5A601A68013AA6
:10B9F0001A600122CB6A9A403243226014246343C6
:10BA00001B4AD61874688C60A768CF607D60A560FB
:10BA10004E61D4580134D450164BCA6A1B68DB6A95
:10BA20009A42C2D90122144B1A6080F311884FF058
:10BA3000E0234FF08052C3F8042DBFF34F8FBFF3C4
:10BA40006F8FB4E70D4B01F118045A68CA6195680D
:10BA50000D626C6094601A688B6201321A60DBE7D9
:10BA600000040140A02F0020E0300020DC30002046
:10BA70005030002038300020343000203C3000208E
:10BA80000E4B1A6842F001021A6059680C4A0A40CB
:10BA90005A601A6822F0847222F480321A601A689E
:10BAA00022F480221A605A6822F4FE025A604FF48F
:10BAB0001F029A60034B044A9A60704700100240CC
:10BAC0000000FFF800ED00E00080000815490B6859
:10BAD0001A6A22F001021A621A6A1A62124A934220
:10BAE0000DD141F21112186A104208D140F24442BD
:10BAF000186A104202BF5A6C22F400425A6441F2A2
:10BB00001112186A104208D140F24442186A1042D9
:10BB100002BF1A6822F001021A60012381F83E3048
:10BB2000704700BFEC2F0020002C014010B50368C7
:10BB300004461A6991070ED5DA6892070BD56FF0A3
:10BB400002021A61012202779B699B0701D105F06D
:10BB5000D1F80023237723681A69500710D5DA68D3
:10BB600051070DD56FF004021A61022222779B69FA
:10BB700013F4407F02D1204605F0BCF80023237760
:10BB800023681A6912070FD5DA6810070CD56FF011
:10BB900008021A6104222277DB69990702D1204644
:10BBA00005F0A8F80023237723681A69D20610D578
:10BBB000DA68D0060DD56FF010021A6108222277DC
:10BBC000DB6913F4407F02D1204605F093F800238F
:10BBD000237723681A69D10739D5DA68D20736D5B1
:10BBE0006FF001021A6123681D4A934230D1FF2190
:10BBF0001C4B1D4C1A88013A1A80226811641B4A9A
:10BC00001178A1B11B889BB28BB1194813780268D7
:10BC1000DBB25363FCF75AFF164B174A1B781178B7
:10BC2000994214D033B1BDE8104005F04BB8FFF78E
:10BC30004DFFF1E7137040F20D12104B1A8023688C
:10BC4000DA624FF483725A6341F204529A6210BD71
:10BC50000B4A934201BF0B4A136801331360F6E7A6
:10BC600000080040722F0020A42F0020702F002019
:10BC7000EC2F00206F2F00206E2F00206C2F002053
:10BC8000002C0140982F00200148FFF74FBF00BF54
:10BC90005C310020044B05481A6805498A4208BFF8
:10BCA0001846FFF743BF00BFEC2F0020A42F002051
:10BCB00000040040044B05481A68B2F1804F08BFE9
:10BCC0001846FFF733BF00BFEC2F0020A42F002041
:10BCD000044B05481A6805498A4208BF1846FFF711
:10BCE00025BF00BFEC2F0020A42F0020000800403B
:10BCF0002DE9F74F054640B94FF0500383F3118803
:10BD0000BFF36F8FBFF34F8FFEE7046C44B14FF06A
:10BD1000500383F31188BFF36F8FBFF34F8FFEE79C
:10BD2000FDF7B4FA08B9FCF76DFA64212046DFF894
:10BD30006892DFF868A29A4F56E019B9FCF786FAC4
:10BD4000002074E020B9D9F80030DAF800800093C0
:10BD5000FCF77CFAFDF75CF8FCF75EFA95F84430E6
:10BD6000FF2B04BF002385F8443095F84530FF2BA6
:10BD700004BF002385F84530FCF768FAFCF74CFA5D
:10BD8000DAF800300098D9F80020904211D04345ED
:10BD90000FD32846FCF75AFAFDF7A6F8FDF7BEF9CF
:10BDA000FCF73AFAAB6B002B00F0C180FCF74EFABF
:10BDB00018E0A3EB08028A42EBD2A8EB03035E185B
:10BDC000D9F80030DAF800800093FCF73FFAFCF76E
:10BDD00023FAAB6B73B32846FCF738FAFDF784F807
:10BDE000FDF79CF931460120FCF716FAAE6B002EE8
:10BDF000A3D02B68013EAE6333B9694B1B6813B106
:10BE00009A6D01329A65AB602B696BB1E869FDF7F9
:10BE100007F848B14FF0E0234FF08052C3F8042DEB
:10BE2000BFF34F8FBFF36F8FFCF710FA012003B001
:10BE3000BDE8F08FAB46FCF709FA5BF8243B002B1A
:10BE40004ED1FCF7E9F9AC68002C47D03A68E36AB8
:10BE5000D26A934263D21421A269002AA1BF3A6830
:10BE6000D26AC2F10702A2614E4A01FB0323616953
:10BE7000994250D1211D08460191FCF7BAFFDFF825
:10BE800028C10199474A50B94FF0010EE36ADCF826
:10BE900000000EFA03FE20EA0E00CCF800003B681A
:10BEA000DCF800E0D86A0123834043EA0E03CCF8B3
:10BEB00000301423434302EB030CE062DCF804007F
:10BEC000A060D0F808E0C4F80CE0CEF8041081605F
:10BED000D158C4F814C00131D1500124FCF7B6F98F
:10BEE000396858461831FCF76DFF3046FDF7DEF92A
:10BEF0002846FCF7F9FFFDF711F900287FF472AF2F
:10BF00004FF0E0234FF08052C3F8042DBFF34F8F62
:10BF1000BFF36F8F66E73B68DB6AE362DDE73B6890
:10BF2000646DDB6A9C422CBF00240124D6E7FCF739
:10BF30008DF9002C3FF404AFFCF76EF96B6A1BB16E
:10BF40002B6B1B68C3F10703AC68002C3FF4F6AE03
:10BF5000A16D41B94FF0500383F31188BFF36F8F88
:10BF6000BFF34F8FFEE7626D934238BF1346E26A1C
:10BF700093423FF4E3AE01297FF4E0AE084909683B
:10BF80008C4213D14FF0500383F31188BFF36F8FAE
:10BF9000BFF34F8FFEE700BF682F00209C2F0020CB
:10BFA0003830002050300020DC300020A169E362EE
:10BFB0000029A4BFC3F10703A3611423124D03FB9F
:10BFC0000252636993427FF4B9AE261D3046FCF7F6
:10BFD00010FF0121E36A0D4A994018B9106820EA60
:10BFE0000100106010680143116014225343E918E6
:10BFF0004A68A2609068E06046609660EA586161B5
:10C000000132EA509AE600BF50300020DC300020B8
:10C0100008B5034B1868FFF76BFE00F0010008BD80
:10C02000A420002038B50546FFF7F2FF044648B1CA
:10C030002846FDF7A1FBFDF705FC0446FDF7BAFB1A
:10C04000FDF794FD204638BD2DE9F04105460E462A
:10C0500017461C46FFF7DCFF50B1EDB22846FDF74E
:10C060008BFBFDF7EFFB38B9FDF7A4FBFDF77EFD79
:10C0700000252846BDE8F081F0B2FDF7E3FB00287B
:10C08000F2D04FF48032184B1A610F2300BF013BEE
:10C09000FCD145F00100FDF76FFBFDF7D3FB054632
:10C0A0000028E1D0104E08214FF00008FDF79AFB60
:10C0B000013911F0FF0140EA4808F7D10223012CB1
:10C0C00008BF204604F1FF3418BF08463361A4B20C
:10C0D000FDF7A0FB07F8018B002CE4D1FDF76AFB0C
:10C0E000FDF744FDC5E700BF000C0140002307B584
:10C0F0008DF807300DF107020123FFF7A5FF9DF82A
:10C10000070003B000BD000010B5FCF781FE174B1F
:10C11000174A1B681268012A08D04FF0500383F3B6
:10C120001188BFF36F8FBFF34F8FFEE70268891846
:10C130002CBF0124002493420FD27CB90160FCF78C
:10C14000EDFF48B94FF0E0234FF08052C3F8042DC3
:10C15000BFF34F8FBFF36F8F10BD0CB98B42EDD281
:10C160000160C81AFDF7A2F8E9E700BF9C2F002084
:10C17000E030002008B550B94FF0E0234FF0805276
:10C18000C3F8042DBFF34F8FBFF36F8F08BDFCF7CB
:10C190003FFE064B1B68012B01D0FCF733F8FDF77F
:10C1A00085F8FCF7BBFF0028E6D0EFE7E030002081
:10C1B0008FB504F0C7FD002800F09580FEF788FADF
:10C1C000002800F09C8001210C2003F08DFF002846
:10C1D00000F095809F4D0A20EB689847062403F0F5
:10C1E0005DFF002800F083800F210B2003F07CFF0F
:10C1F000002800F0848000210A2003F075FF002849
:10C200007DD000210E2003F06FFF002877D00021A1
:10C210000F2003F069FF002871D00C21062003F0E5
:10C2200063FF00286BD00721092003F05DFF002881
:10C2300065D00021082003F057FF00285FD00421BB
:10C24000072003F051FF002859D00721022003F0F6
:10C250004BFF002853D00A20EB68984740217D48C7
:10C2600003F036FF0B210446022003F03DFF0028B7
:10C2700045D00A20EB6898474021764803F028FF14
:10C2800004F0030400F00300844240F29A80252168
:10C29000032003F029FF90B30721022003F024FFBD
:10C2A00068B34421062003F01FFF40B30421072098
:10C2B00003F01AFF18B302210C2003F015FFF0B1B0
:10C2C00001238020032464498DE81B0069466348EC
:10C2D000FCF73EFA0A211720FCF7B8F94FF40002E8
:10C2E0005F4B1A600BE00320FFF744FF61E70A2071
:10C2F000EB68013C984714F0FF047FF470AFFEF741
:10C30000C5FDDFF85881574FD8F80830564C13F068
:10C31000800F5ED1D8F808301B0620D46B46072268
:10C320003C2165682078A847C8B19DF80330DE0736
:10C3300000F1C9809DF802305D0700F1F180D90657
:10C3400042BF226C42F4806222641A0607D59DF82F
:10C3500005309B0742BF236C43F02003236494F80D
:10C3600035317BB123699847D4F83831C01AB0F51C
:10C370007A7F07D9236C43F04003236423699847ED
:10C38000C4F8380194F8723153B123699847D4F84E
:10C390003C31C01AC82882BF236C43F40053236485
:10C3A000FEF774FDFEF7A4F90028ADD094F83431FF
:10C3B000192BA9D094F83130002BA5D194F8303046
:10C3C000A2E72621032003F08FFE002897D00B213F
:10C3D00063E7FCF71DFDFBF71FFF3B6893F8603038
:10C3E000022B29D1FBF732FF0025FCF797FE55B150
:10C3F00048B94FF0E0234FF08052C3F8042DBFF34B
:10C400004F8FBFF36F8FFBF707FF3B6893F86030E8
:10C41000022B03BF3A680121D36D002104BF03F052
:10C420007F43D36500223B6883F86020FBF70EFF53
:10C4300000293FF46FAF71E701253B683220DA6DC8
:10C44000DA653B6883F86050FBF700FFFCF72EFFCE
:10C45000CBE700BFB025002000002110000C0140F8
:10C4600000E100E038300020282A002043212F4836
:10C4700003F02EFE02222E4B4321656800F0E006F9
:10C480002078A847B4F8F63013F4E04FC3F3023233
:10C4900005D043216568274B20789200A8470422E5
:10C4A00043216568244B2078A847E02E0BD1B4F8CF
:10C4B000F63023F47E635B045B0C0D2B0AD1236CF6
:10C4C00043F0010323644121184803F001FE800674
:10C4D000CCD52FE7D4F8EC60184D05EB46168C351B
:10C4E0000FCD0FC695E80F0086E80F00D4E93A2378
:10C4F0009A4207D194F8F01021B1013202F0030200
:10C50000C4F8E820013303F003039A42C4F8EC3086
:10C5100004BF012384F8F030236C43F00203D1E719
:10C52000226C42F40072226409E700BF282A00202E
:10C530001E2B0020202B0020C0250020902A002048
:10C54000012838BF0120FFF715BE000010B51D4BB4
:10C550001A681D4B12B101221A6010BD1A601B4AE5
:10C5600013681B6B1968B1F1A53F0BD15968B1F184
:10C57000A53F07D19968B1F1A53F03D1DB68B3F1BD
:10C58000A53F03D01368136804F0F6FA104B1B683C
:10C59000B3FA83F31421DBB2C3F11F034B430D4CF9
:10C5A000E158E01809B9FBF72DFE416808334968E6
:10C5B00023449942416004BFC1684160CB68136065
:10C5C0001368CAE7E0300020343000203830002003
:10C5D000DC3000205030002010B504F091FB044600
:10C5E00004F098FB44EA400010F0FF001FBF1B4B13
:10C5F0001A681B4B1A601B4A1378834212D180B110
:10C60000164B194A1B6812689B1AB3F5C87F21D3D1
:10C610000122164B90421A701ED0022814BF20200F
:10C62000082010BD38B10343002013700B4B1A686B
:10C630000D4B1A60F5E70D490C784CB9012B02D06F
:10C64000022B18BF10230020107008701846EDE769
:10C650000346F8E70020E4E70420E2E79C2F0020EF
:10C66000082F0020F41F0020F01F0020EC1F0020E6
:10C6700070B50646094C256821683046491BFDF710
:10C68000E1FBFFF7A9FF28B903F0A0FE2820FFF780
:10C6900071FDF1E7431E5842584170BD9C2F0020A8
:10C6A00008B5094BB3F84C309BB24BB90748FFF7BC
:10C6B000DFFF38B10121BDE808402420FCF742BF6C
:10C6C0000021F8E708BD00BF6C2E0020BD3701082F
:10C6D00008B50F48FFF7CCFFC8B17822FF210D48FD
:10C6E00004F060FEFEF776FBFEF702FBFDF75AFB57
:10C6F000FFF772FF01460848FDF772FB08B104F02E
:10C700003BFA03F063FE6420FFF734FDEEE708BD5B
:10C710000F3801086C2E00207237010810B5FFF7A2
:10C720005BFF044644B9FFF757FF04463220FFF78A
:10C7300021FD002CF7D010BDFFF74EFF044632203C
:10C74000FFF718FDEEE700002DE9F04104F040FD91
:10C75000054618B900252846BDE8F081DFF890802D
:10C760000021B8F82E0080B204F080FA214B1B683B
:10C77000B3F5FA6FEED9B8F80A20B8F80C3092B2D7
:10C7800082B302325343DBB28342E3D900241A4B13
:10C790001A4F1C60FDF706FBB8F82030184E9BB20C
:10C7A0003C80348003B32346FF222146154804F021
:10C7B0002BF80823FF2221461348338023463C8070
:10C7C00004F022F8FDF798FE2346FF2221460F4889
:10C7D00004F01AF803F0FAFD3220FFF7CBFCFFF764
:10C7E0009DFFB8E75A23CFE7FF2201210848EFE772
:10C7F0006C2E00209C2F0020442E00206A2E00204A
:10C80000682E0020293801083738010898140108DB
:10C810001E38010808B504F087FA20B10022064B43
:10C8200001201A6008BDFFF78FFF0028FAD0034BE4
:10C830001A68034BF4E700BF442E00209C2F002011
:10C84000082F002070B50E4E35680544FFF7C4FE72
:10C8500004465CB9FFF7C0FE04463220FFF78AFCAD
:10C8600033689D420BD3002CF4D008E0FFF7B4FEF0
:10C8700004463220FFF77EFC33689D42E9D270BD4A
:10C880009C2F00202DE9F84FFDF78CFA4FF0190985
:10C89000384E0024384D394FE88D214680B24FF094
:10C8A0000A0BA6F800903C8004F0E0F90123B0FBED
:10C8B000FBFA80461A4602211FFA8AF003F0DCFFD9
:10C8C0002346FF2201212E4803F09EFF01220BFB8D
:10C8D0001A801146234680B203F0CEFF2346FF2282
:10C8E0000121284803F090FF0823E88D2246032108
:10C8F0003B8080B20123348003F0BEFFFFF76CFE63
:10C90000022833D007D801281BD003F05FFD282070
:10C91000FFF730FCBDE71028F7D8FEF7E9F9FDF77F
:10C9200041FA34803C80FFF757FE01461648FDF778
:10C9300057FA03F04BFDBDE8F84F4FF4FA70FFF7DC
:10C9400081BF124AE98DB2F8A83089B28B4203D177
:10C95000B2F8AA30EB85D8E7B2F8AC10EA8D5818D7
:10C9600092B28242C4BFEB8D5B1AF3E71520FCF74D
:10C9700001FECAE76A2E00206C2E0020682E0020DF
:10C980006E150108A51401085F3701080600002094
:10C99000074AB2F84A309BB2042B01D9FFF7BEBE5A
:10C9A0004FF47A70B2F84A309BB25843FFF74ABF4F
:10C9B0006C2E0020F8B507460D4616461C46FFF7BC
:10C9C00027FB48B1F8B2FCF7D7FEFCF73BFF30B9C4
:10C9D000FCF7F0FEFDF7CAF800252846F8BDE8B2DE
:10C9E000FCF730FF05460028F2D0013E24B9FCF7E1
:10C9F000E1FEFDF7BBF8F0E704F0D0F816F8010F00
:10CA0000FCF720FF0028E3D0013CA4B2EEE70000D1
:10CA10002DE9F341804617460C4600250D4E6378FC
:10CA200040468DF80730217801230DF10702FFF70A
:10CA3000C1FF60B1A3782BB1316801333268521A5B
:10CA40009342FBD80135BD4204F10304E7DB02B099
:10CA5000BDE8F081982F00202DE98048142093B084
:10CA6000FFF788FB3A20FFF7DDFA38B10D223A20B4
:10CA7000BB49FFF7CDFF002840F049813220FFF786
:10CA8000D1FA002800F0E58000230F218DF838301E
:10CA9000322001230EAAFFF7D7FA002800F0D98030
:10CAA0009DF83830332B02D0112B40F0D2800C226D
:10CAB0003220AC49FFF7ACFF002800F0CA80002309
:10CAC0000F218DF83830322001230EAAFFF7BCFA6F
:10CAD00020B19DF83830112B00F01C814FF0030875
:10CAE000A14B3220C3F80080FFF744FB00229F4B8C
:10CAF0001A609F4B1B8B9BB21BB14FF4FA60FFF780
:10CB000039FB0025102200210EA804F04BFC102256
:10CB100000210AA804F046FC1022002106A804F017
:10CB200041FC2F462E460324A946AA46C82240F6B9
:10CB3000E4418F4BB8F1020F5B8A9BB202FB1313E7
:10CB4000039340F0F38004AA062301213A20FFF763
:10CB50007BFA10213A20BDF81050BDF81270BDF8D4
:10CB60001460FFF7C3FA0206EDBAFFBAF6BA40F155
:10CB70008D81C0F341047E4B1B8A9BB2022B06D1F0
:10CB8000032C04D0B4FA84F0400903F0EFFC794898
:10CB900012AB03EB490323F8105C23F8207C23F845
:10CBA000306C03780EA90AAA0DF1180C4BB909F1E3
:10CBB00001035FFA83FEBEF1080F40F06B81012391
:10CBC0000370002093460291024601460346CDF8C9
:10CBD00004C0DDF808C001303CF902EBC0B2CDF86A
:10CBE00008C07344DDF804C03BF902EB0828714427
:10CBF0003CF902EBCDF804C07244EAD1002BB8BF77
:10CC00000733C5EBE303002BB8BF5B420029B8BF75
:10CC10000731C7EBE1010029B8BF4942002AB8BF7C
:10CC20000732C6EBE202002AB8BF52420B4413445B
:10CC3000039A64209A42B8BF4F4B09F10109BCBF67
:10CC40001A684A4B09F00709B8BF1A60FFF792FA51
:10CC50006CE73020FFF7E6F998B10021012330207E
:10CC60000EAA8DF83810FFF7EFF950B19DF8383063
:10CC7000F82B06D1082230204049FFF7C9FE0028D2
:10CC80004BD13020FFF7CEF930B3002401230F2120
:10CC900030200EAA8DF83840FFF7D6F9E0B19DF8A4
:10CCA0003830112B18D10C223020354B35491C70EF
:10CCB000FFF7AEFEA0BB4C20FFF7B4F928B1052268
:10CCC0004C203149FFF7A4FE68BB01460720FCF762
:10CCD00039FC4FF0010803E73220FFF7A3F90028E1
:10CCE000E9D000230F218DF83830322001230EAA1D
:10CCF000FFF7AAF90028DED09DF83830112BDAD1E1
:10CD000001221F4B32201A7020490C22D0E74FF02D
:10CD10000208E5E64FF00808E2E64FF00408DFE617
:10CD20004FF00608DCE64FF00508D9E6B8F1030F2E
:10CD300002D0B8F1080F2BD10623A82104AA322073
:10CD4000FFF782F9B5213220BDF91050BDF91270FC
:10CD5000BDF91460FFF7CAF98408013CE4B20AE7A0
:10CD60001C44010843440108542E00200C2F0020CD
:10CD70006C2E0020C52500209C2F00206744010850
:10CD8000C4250020A3440108C74401087F440108CA
:10CD9000B8F1040F24D106230221302004AACDF8D3
:10CDA00010A0ADF814A0FFF74FF9A8B19DF81150ED
:10CDB0009DF813709DF81560AD01BF01B6010C21FF
:10CDC0003020FFF793F983064FEA10145ED404F085
:10CDD000030484F00104CEE6054607460646EEE766
:10CDE000B8F1050F24D10623022104AA4C20FFF735
:10CDF0002BF901230C214C2004AABDF91050BDF9D8
:10CE00001270BDF914608DF810A0FFF71DF99DF8A0
:10CE10001030AD10602B4FEAA7074FEAA60605D0E9
:10CE2000702B08BF002418BF0324A4E60124A2E647
:10CE3000B8F1060F7FF49FAE1A4BCDF810A01C7806
:10CE4000ADF814A0DCB930202821062304AAFFF78E
:10CE5000FBF8B8B1BDF91050BDF91270BDF91460FE
:10CE6000002C0CBF302032203521FFF73FF9C0F3F2
:10CE70008704022C0CD004F0FB04012CD3E73220F1
:10CE8000A821E2E7054607460646E9E7032472E6DD
:10CE9000002470E621F8135022F813702CF8136068
:10CEA000013386E6C425002040220D4B1A61202262
:10CEB0001A610F2200BF013AFCD14FF400121A612F
:10CEC0000F2300BF013BFCD14FF48003044A1361E0
:10CED0000F2300BF013BFCD120231361704700BF2B
:10CEE000000C01404FF40013094A13610F2300BFE7
:10CEF000013BFCD1402313610F2300BF013BFCD158
:10CF00002022034B1A610F2300BF013BFCD1704765
:10CF1000000C014020230A4A13610F2300BF013B8C
:10CF2000FCD1402313610F2300BF013BFCD14FF420
:10CF30008002034B98681A61C0F34010704700BF2D
:10CF4000000C0140014B1868FCF722BD582000205E
:10CF50002DE98048384A394913689BB043F01003E3
:10CF60001360CA68364B22F4E0621204120C1343B9
:10CF7000344CCB60FBF7AEFEA369002143F0010304
:10CF8000A361A3696FF00B0003F001030793079BF4
:10CF9000FBF75CFB00216FF00A00FBF757FB002159
:10CFA0006FF00900FBF752FB00216FF00400FBF764
:10CFB0004DFB00216FF00300FBF748FB0F216FF0E2
:10CFC0000100FBF743FB0F214FF0FF30FBF73EFB67
:10CFD000636813F00C0F07D0636803F00C03082B91
:10CFE00036D16368DF0333D42368236823F0F80362
:10CFF00043F080032360636803F00C03082B33D0F5
:10D000000022114B1A66114A116823689D0100F134
:10D01000B2820121636823F4741343F460136360E4
:10D02000094B19661168236898011DD413685B1AAF
:10D03000022BF8D918E000BF0020024000ED00E00C
:10D040000003FA050010024000004242982F002021
:10D050000122C44B1A60C44A116823689E07C4D4D5
:10D0600013685B1A022BF8D9C04A136813F0060F35
:10D0700000F08782636843F4E0636360636843F4AD
:10D0800060536360636823F0F00363602368990171
:10D0900000F184824FF47A726368B54F23F4404301
:10D0A00043F4004363603B68B3FBF2F3013BB3F12D
:10D0B000807F0AD24FF0E022F0215361AD4B83F81C
:10D0C000231000239361072313614FF0E0221369BB
:10D0D0004FF002090326A84D43F0040313610F210A
:10D0E0004FF0FF30FBF7B2FA6B6812A923F0E06350
:10D0F00043F080636B60A369A04843F02003A36101
:10D10000A3694FF0010803F020030B930B9BA36965
:10D110004FF0100A43F00403A361A36903F0040372
:10D120000A930A9BA36943F00803A361A369CDE9AD
:10D13000126603F008030993099BCDF85490FBF79E
:10D1400007FB6B68A0F5406043F0E06343F40043E5
:10D150006B6048F27F73CDE91236FBF7F9FA4FF6B0
:10D16000F77300F5806000261293FBF7F1FA4FF495
:10D17000A063A0F58060CDE91236CDF85080FBF7B2
:10D18000E7FA00F58060CDE912A81496FBF7E0FA03
:10D190004FF4801303614FF40043A0F58060CDE9A4
:10D1A00012381496FBF7D4FA4FF000430361CDE92F
:10D1B00012984FF400391496FBF7CAFA8023C0F88E
:10D1C000109000F58060CDE91236CDF85080FBF765
:10D1D000BFFA6369052143EA0803636163690B20B1
:10D1E00003EA08030893089BFBF730FA4FF4006347
:10D1F000634D05212B605046FBF728FA4FF480332E
:10D2000005212B601120FBF721FAC5F800905D4B3A
:10D210005D4D2B604FF48073C5E902384FF46023F5
:10D220002846EB616E616E60C5F81080FBF76CFB01
:10D2300095F82430434510D02A6885F82480536B34
:10D2400023F01F0343F004035363136923F4E04303
:10D2500043F4C043136185F82460032601234FF48F
:10D26000A04CCDE912634FF004080023464812A9F0
:10D27000CDE9183C149617931593CDF85880FBF719
:10D2800059F9022312A91393FBF754F91396064692
:10D2900012A9FBF74FF912A9CDF84C80FBF74AF918
:10D2A0002A68536843F0800353603046FBF77CF8EC
:10D2B00080460028F9D1354E354B4FF001093360D7
:10D2C0004FF480734FF0020BC6E902394FF460232C
:10D2D00070617060306130464FF0030AF361FBF714
:10D2E00013FB4FF4A043CDE912B94FF004093046C7
:10D2F00012A9CDE91883CDF85890CDF850A0CDF8FB
:10D300005C80CDF85480FBF715F912A9CDF84CB02C
:10D31000FBF710F9062312A9CDE9123AFBF70AF937
:10D3200012A9CDF84C90FBF705F93046FBF73CF815
:10D3300080460028F9D14FF080426423154EFF212A
:10D34000C6E900234FF40073C6E903138023B060DD
:10D350003046B361FBF71CFC96F83C30012B2AD019
:10D360001AE000BF00004242982F00200020024037
:10D370001C02002000ED00E000000140001401400C
:10D3800000E100E000240140E830002008200020F7
:10D3900000280140EC2F00200223326886F83D303F
:10D3A000936823F47F4323F077039360012386F887
:10D3B0003C8086F83D304FF00008B548FBF742FC52
:10D3C000B348FBF73FFCB2480CA9CDE90C88FBF74A
:10D3D000CFFC6023CDE91238042312A94FF00109D4
:10D3E00016934FF0020ACDF85080FCF74BFA032356
:10D3F000A8480EA91193CDE90E9AFBF7A9F9A44804
:10D40000FBF764FB4FF4FA63A34EDFF890E240F2BF
:10D410001B1BC6E900E34FF400733046C6E903B3B3
:10D42000C6E90588C6F80880FBF7B2FB96F83C30E1
:10D430004B450CD0326886F83DA0936823F47F43B7
:10D4400023F07703936086F83D9086F83C809248FD
:10D45000FBF7F8FB9048FBF7F5FB4FF00008302393
:10D460008D480EA9CDE90E38FBF782FC4FF0600C19
:10D4700040F20D13CDE912C3042312A91693CDF87F
:10D480005080FCF7FFF996F83C30CDF84C80012B2A
:10D4900023D033681A6A22F480521A621A6AD3F8C7
:10D4A00004C0D969129821F4E64141EA0021149898
:10D4B00022F4005242EA00327948834202BF1798B0
:10D4C0002CF4804C4CEA801CC3F804C0D961139939
:10D4D00019641A62002386F83C3096F83D30012B1F
:10D4E00002D16D48FBF7D4FB6B48FBF7EFFA96F8D7
:10D4F0004130012B1DD1022386F841303368DA68B0
:10D5000042F01002DA601A6A22F480521A621A6A31
:10D5100042F480521A62624A934240F0A6805A6CEA
:10D5200042F400425A649A6802F00702062A40F068
:10D53000A9800F211E20FBF789F84FF080420620BA
:10D5400064214CF6CC46574B1A60574B574AC2E9F8
:10D55000003091601E6045F255561E60586099601B
:10D56000534912680868D368002B40F0B1804AF62E
:10D57000AA231360B1E013685B1A022B7FF645AD56
:10D5800072E5136823F0070343F002031360136886
:10D5900003F00703022B3FF46DAD7BE541F28830C9
:10D5A0006368434A23F0030343F002036360116896
:10D5B000636803F00C03082B2ED13E4A136803F076
:10D5C0000703022B2DD8636812AD43F4E063636058
:10D5D000636823F460536360374B03F110062A46F7
:10D5E00018685968083303C2B3421546F7D140F2B0
:10D5F0000123ADF83830626802F00C03082B1DD00F
:10D600002E4B62682E49C2F303128A5CD3402D4A26
:10D610001360FBF75FFB3DE513685B1A8342C7D9D4
:10D6200038E5136823F0070343F00203136013681F
:10D6300003F00703022B7FF42DADC4E7C2F383434D
:10D6400068336B44D20313F8203C0BD562681B4946
:10D65000C2F340424B4368326A4412F8302CB3FBA9
:10D66000F2F3CEE7184A5343CBE7B3F1804F3FF4D0
:10D670005AAF164A93423FF456AF02F58062934286
:10D680003FF451AF1A6842F001021A6051E700BF3F
:10D69000EC2F002000080140A42F002000080040CB
:10D6A000002C014000E100E000300040FC1F0020A1
:10D6B000982F002000200240AC14010800127A00CC
:10D6C000944301081C02002000093D0000040040B2
:10D6D0000B681B1A302B7FF646AF2A68AB4B9A4279
:10D6E00002D0AB498A4204D15B6813F4702F40F03A
:10D6F000878095F82430012B00F082800123A54813
:10D7000085F82430FAF7D8FD002840F0AA81AB6AEA
:10D710002A6823F4706323F0010343F48073AB623F
:10D720009B4B9A4205D199494B6813F4702F40F0F6
:10D730008781AB6A23F48013AB625368580548BFF6
:10D74000AB6A954942BF23F4405343F48053AB6224
:10D75000AB6A002013F4805318BFEB6A85F82400ED
:10D7600018BF23F00603EB622B6A99626FF0020187
:10D770001160916841F48071916093F82010012943
:10D7800031D0012183F8201093F82110012940F0B5
:10D79000658102F14C0E022283F821201A689863F9
:10D7A00010687E4E20F001001060D86B0390186C5A
:10D7B000814003984160102019684860586810281B
:10D7C0000BBF8E60C1F808E0C1F80CE0CE60DB6AE8
:10D7D000002B00F03B81136843F00E0313601368C5
:10D7E00043F0010313602B689A6802F46022B2F5DB
:10D7F000602F9A680CBF42F4A00242F480129A6033
:10D8000001254FF020084FF0110940266148FAF732
:10D810003DFE6348FAF73AFE03F054FAA369614803
:10D8200043F00403A361A36912A903F004030E9358
:10D830000E9BCDE9128915951495FAF789FFCDE96C
:10D84000126915951495FAF783FF80234FF480022F
:10D85000C0F81080066153490A6100BF00BF00BFD5
:10D8600000BF0E6100BF00BF00BF00BF013BF2D18F
:10D870004D48FCF739F94D4B02251860FFF762FB64
:10D88000A369112643F00403A361A369454803F08B
:10D8900004030C930C9BA36912A943F00803A36132
:10D8A000A369012403F008030693069BCDE91256F1
:10D8B00015941494FAF74CFFCDE91246159414947C
:10D8C000FAF746FF05614FF4803380250461036158
:10D8D00000BF00BF00BF00BF046100BF00BF00BFAA
:10D8E00000BF013DF3D13248FCF7FEF8314B186020
:10D8F000FCF73CF903F052F978222F492F4803F046
:10D90000A6FDFDF767FA2E4B18702846FCF74EFE71
:10D9100003F044F92B48FCF731FA2B4B18602B48E5
:10D92000FCF72CFA2A4B18602A48FCF727FA2A4BF6
:10D9300018602A48FCF722FA294B186003F02EF9E8
:10D94000284A12AB12F8014B03F8014B002CF9D115
:10D95000254B4FF480720193244B12A90093244865
:10D960002346FCF709F94FF0500383F31188BFF306
:10D970006F8FBFF34F8F4FF0FF3101221D4B1960A6
:10D980001D4B1A601D4B1C603AE000BF0024014093
:10D9900000280140E830002065830008382000207E
:10D9A00008200020000C01405C20002058200020AE
:10D9B000A8200020A420002000FC01086C2E0020DC
:10D9C000FA290020F8430108482E0020DC43010812
:10D9D000A02F0020C04301084C2E0020A4430108C2
:10D9E000502E0020A7140108F0240020F020002071
:10D9F000B99D0008242F0020602F00209C2F0020BC
:10DA0000314B1A78D2B2129219701B782F4A8DF8C6
:10DA100017309DF8173003F05003137007232C4A7A
:10DA200013609DF8171009061FD4032B25D04FF063
:10DA3000500383F31188BFF36F8FBFF34F8FFEE75F
:10DA4000AB6A43F48013AB624B6877E6136823F04C
:10DA500004031360136843F00A03BFE683F8200051
:10DA6000C1E6002385F82430CAE69DF81710013B73
:10DA7000490013608DF81710D3E74FF4407313601B
:10DA8000129B114A002113704FF0E0234FF47A707B
:10DA9000D3F8202D42F47002C3F8202DD3F8202DA6
:10DAA00042F07042C3F8202D196199613A68B2FBC7
:10DAB000F0F2013A5A6107221A61064B1960FAF72F
:10DAC00091FBFEF743FDFEE700E400E0A8310020F3
:10DAD000A4310020200200200A4B80B120221A61CC
