:020000040800F2
:108000000050002099810008E1810008E18100080A
:10801000E1810008E1810008E18100080000000022
:1080200000000000000000000000000031B7000860
:10803000E18100080000000061B70008A5B7000852
:10804000E1810008E1810008E1810008E181000888
:10805000E1810008E1810008E1810008E181000878
:10806000E1810008E1810008E1810008D9B700083A
:10807000E1810008E1810008E1810008E181000858
:10808000E1810008E1810008F9B80008E1810008F9
:10809000E1810008E1810008E1810008B9BA000827
:1080A000E1810008D9BD0008E1810008E1810008F4
:1080B00005BE0008E5BD000821BE0008E1810008FA
:1080C000E1810008E1810008E1810008E181000808
:1080D000E1810008E1810008E1810008E1810008F8
:1080E000E1810008E1810008E18100080000000052
:1080F0000000000000000000000000000000000080
:0C81000000000000000000005FF8E0F14B
:108110000348044B834202D0034B03B11847704716
:108120003402002034020020000000000548064B05
:108130001B1AD90F01EBA301491002D0034B03B165
:10814000184770473402002034020020000000006D
:1081500010B5064C237843B9FFF7DAFF044B13B18F
:108160000448AFF300800123237010BD38020020C3
:10817000000000000409010808B5044B1BB10449C4
:108180000448AFF30080BDE80840CFE700000000DE
:108190003C02002004090108002103E00B4B5B585E
:1081A000435004310A480B4B42189A42F6D30A4A0C
:1081B00002E0002313600432084B9A42F9D303F023
:1081C00007FD08F043FB04F08DFDFEE78C35010848
:1081D000000000203402002038020020B4310020CA
:1081E000FEE7FEE706480068006880F3088862B68C
:1081F00061B6BFF34F8FBFF36F8F00DF00BF00008A
:1082000008ED00E04FF0500383F31188BFF36F8F48
:10821000BFF34F8FFEE7000008B54FF0500383F324
:108220001188BFF36F8FBFF34F8F074A1368013375
:10823000012B136007D14FF0E023D3F8043DDBB2EC
:108240000BB1FFF7DFFF08BD28020020054A08B583
:1082500013680BB9FFF7D6FF013B13600BB983F32B
:10826000118808BD2802002008B5EFF305830F2B05
:1082700007D90E4A9B5C0E4A12789A4201D9FFF741
:10828000C1FF4FF0E0230B4AD3F80C3D126803F412
:10829000E063934208D94FF0500383F31188BFF392
:1082A0006F8FBFF34F8FFEE708BD00BFF0E300E024
:1082B000703100206C310020002337B50268019333
:1082C0009368DB0702D5002003B030BD93681249E4
:1082D00043F001039360114B1B68B3FBF1F301936F
:1082E000019BABB90E4C2568936813F00103EAD1EA
:1082F0002168491B0229F7D9826A80F8243042F0AC
:1083000010028262C26A42F00102C2620120DBE70F
:10831000019B013BE3E700BF40420F002402002025
:10832000602F0020036810B59A68D10701D400209F
:1083300010BD9A680A4922F001029A600C689A6896
:10834000D207F4D50A68121B022AF8D9836A43F0CF
:1083500010038362C36A43F00103C3620120E7E7AD
:10836000602F0020436A9A6A12F0500F18D19A6A5F
:1083700042F400729A621A68926802F46022B2F5BE
:10838000602F10D1DA6872B99A6A22F480729A6208
:108390009A6AD20407D49A6A42F001029A6270473C
:1083A0001B6A1B6B18477047002337B5019390F881
:1083B00024300446012B5FD0012380F82430FFF7DE
:1083C000B1FF0546002839D1A36A2C4823F488530D
:1083D00023F0020343F00203A362294B1A68294BDE
:1083E00059685B68C1F3C221415CC3F38133013337
:1083F00022FA01F15B00B1FBF3F3B2FBF3F252009E
:108400000192019BF3B92046FFF756FF23689A6853
:1084100042F008029A601C4A10689968090715D44E
:10842000996841F0040199601068996849071ED461
:10843000A36A23F0030343F00103A362002384F83B
:10844000243011E0019B013B0193DAE71168091A1E
:108450000A29E2D9A36A012523F0120343F010038D
:10846000A362002384F82430284603B030BD11688D
:10847000091A0A29D9D9EDE70225F5E714350108CB
:108480002402002000100240602F002010B590F858
:1084900024300446012B3DD0012380F82430FFF71F
:1084A0000BFF00283FD1A36A214A23F4405323F055
:1084B000010343F48053A3622368934205D1A2F5DC
:1084C0008062526812F4702F25D1A26A22F48012C1
:1084D000A262A26A12F4807208BFE262002284F8EB
:1084E00024206FF004021A605A68520512D49A6868
:1084F00002F4E042B2F5E04F11D10D4A934205D1AA
:10850000A2F58062526812F4702F08D19A6842F482
:1085100002129A6010BDA26A42F48012D8E79A68EB
:1085200042F40042F5E7002384F82430F2E700BF6C
:108530000028014090F82430F0B5012B63D00123CE
:108540001F2680F824300F694D680368EC1B04EB8C
:108550008404BD4204F10F040A6806FA04F69ABFC7
:10856000D3F838C002FA04F49C6B46F440169FBF5F
:1085700007F1FF3744EA07542CEA0606344388BF64
:10858000B4439C639C68E40707D49C68CE6924F4D8
:10859000E04424F0010434439C608E69012E0CD128
:1085A000CC69B4F5E04F0BBF5C68846A44F4806426
:1085B00044F020040CBF5C6084624C69012C04D13F
:1085C00016BB5C6844F480545C60092A8E6820D92C
:1085D00007270A3ADC6802EB4202974024EA0704C4
:1085E00006FA02F22243DA60022DCC6816491BD04B
:1085F000032D1ED0012D21D15A690A4022435A6110
:10860000002380F82430F0BD846A44F020048462A2
:10861000DBE707271C6902EB4202974024EA0704C4
:10862000964034431C61DFE79A690A4022439A610D
:10863000E6E7DA690A402243DA61E1E71A6A0A40AA
:1086400022431A62DCE700BF00F0FFFF114B10B5B8
:10865000DB684FF0FF34C3F30223DA1E042A86BF1F
:1086600004230022C3F1070304FA03F3002821EADC
:108670000301ACBF00F16040074B01FA02F14FEA81
:108680000111B5BF00F00F0000F56140195480F8EA
:10869000001310BD00ED00E014ED00E0054B1A6979
:1086A000120605D5044A5A6002F188325A601B69E5
:1086B000704700BF002002402301674510B54CF20F
:1086C00050342049204B0868DA68D20733D4DA687E
:1086D000910644BF2022DA60DA68D20606D4DA694D
:1086E000D40703D4D86810F0040023D0164AD36806
:1086F00013F0100305D01549CB6943F00203CB6199
:108700001023D268500706D5104943F00403CA6904
:1087100042F00102CA610C4AD169C90708D50B4869
:10872000C16941F00401C161D16921F00101D16148
:108730000120D36010BD0A68121AA242C4D90320D6
:10874000F8E700BF602F002000200240402F0020EB
:108750002DE9F74F00244FF0010826464FF00F0E89
:10876000DFF890C1644B0A6808FA06F707EA0205C9
:1087700037EA020240F084804A68032A00F0B080A1
:1087800010D8012A00F0A180022A00F0A3808A6894
:10879000002A00F0A780012A4FF008040CBF0761EF
:1087A000476106E0122A00F0988070D8112A00F084
:1087B0008E80FF2D92BF814600F10409A6F10802C8
:1087C000D9F8007094BFB20092000EFA02FA27EABC
:1087D0000A0704FA02F21743C9F80070D1F80490AE
:1087E00019F0805F4CD0DCF8182026F0030742F027
:1087F0000102CCF81820DCF8182007F1804702F0BD
:108800000102019207F5803706F0030A019A4FEA48
:108810008A0ABA680EFA0AFB22EA0B0B374A904220
:1088200062D002F58062904260D002F58062904290
:108830005ED002F58062904214BF0422032202FA45
:108840000AF242EA0B02BA601A6819F4803F14BFB8
:108850002A43AA431A605A6819F4003F14BF2A43F6
:10886000AA435A609A6819F4801F14BF2A43AA4386
:108870009A60DA6819F4001F14BF2A43AA43DA6029
:108880000136102E7FF46FAF03B0BDE8F08FDFF834
:1088900070904A453FF47BAF0FD8A9F580194A453F
:1088A0003FF475AF09F570294A453FF470AFA9F55B
:1088B00080194A453FF46BAF7BE7DFF848904A45A3
:1088C0003FF465AF09F58039F3E7CC6871E7CC6810
:1088D00004346EE7CC6808346BE7CC680C3468E786
:1088E000002466E7042464E70022A8E70122A6E743
:1088F0000222A4E7001002400004014000080140E9
:10890000000022100000311070B5826A044686B063
:10891000002A39D10168654BC262994280F824204F
:1089200003F56C43996940F0848041F400719961CA
:108930009B695F4903F400730293029B5D4B4FF404
:108940008075C3E9001280214FF4806CC3E90315E0
:108950002021C3E905C14FF4805157481A649A6039
:10896000D9618168D8636FF30D1141F4AD51816015
:108970009A631D8423625C620F211220FFF766FE5A
:108980004FF480224D4B1A602046FFF7CBFCA36AC0
:1089900013F0100340F08680002840F08380A26A24
:1089A000616822F4885222F0020242F00202E06979
:1089B000A568A262E2680143B5F5807F41EA420101
:1089C00059D06E1E7042704100026669012E07D1B7
:1089D000002A52D1A269013A40EA423242F40060D0
:1089E0002268B5F5807F566826F4694640EA06009D
:1089F00050609668324806EA000040EA0100906044
:108A000001D0012D02D12369013B1B05D06A20F45E
:108A100070000343D36292682A4B1340994235D1C8
:108A20000023E362A36A23F0030343F00103A3627C
:108A300036E041F4806199619B69032503F480630A
:108A40000193019B082320480DEB03010492CDE91B
:108A50000235FFF77DFE1023CDE90235FFF778FEE2
:108A60000423CDE90235FFF773FE4023CDE902353B
:108A7000FFF76EFE80E72846A7E7A26A42F02002D1
:108A8000A262E26A42F00102E262A9E7A36A23F06D
:108A9000120343F01003A362E36A43F00103E362AD
:108AA00006B070BDA36A43F01003C0E70024014084
:108AB00008000240E03000200000024000E100E039
:108AC000FDF7E1FFFE0E1FFF0008014090F83E3069
:108AD000012B22D1022380F83E3003681A6A22F06B
:108AE00001021A621A6A42F001021A620B4A9342A8
:108AF0000AD0B3F1804F07D0A2F59432934203D04D
:108B000002F58062934204D19A6802F00702062AB5
:108B100003D01A6842F001021A607047002C01402D
:108B20001A4A036890420AD0B0F1804F07D0A2F5EC
:108B30009432904203D002F58062904215D14A6887
:108B400023F070031343114A90420AD0B0F1804FD2
:108B500007D0A2F59432904203D002F58062904291
:108B600003D1CA6823F4407313434A6923F0800396
:108B7000134303608B68C3620B688362034B9842A4
:108B800004BF0B690363012343617047002C01405C
:108B90001FB590F83D30044603F0FF0200687BB932
:108BA000254B84F83C20984228D103F50333DA6939
:108BB00042F00202DA61DB6903F002030293029BD6
:108BC0000223211D84F83D30FFF7AAFF0123002076
:108BD00084F8463084F83E3084F83F3084F84030E2
:108BE00084F8413084F8423084F8433084F84430CB
:108BF00084F8453084F83D3004B010BDB0F1804FAA
:108C00000AD10E4BDA6942F00102DA61DB6903F046
:108C100001030193019BD3E7094B9842D0D103F59F
:108C20000233DA6942F00402DA61DB6903F004031B
:108C30000393039BC4E700BF000400400010024000
:108C40000008004010B590F83D30044603F0FF02E4
:108C50000BB980F83C200223206884F83D30211DA8
:108C6000FFF75EFF012384F8463084F83E3084F835
:108C70003F3084F8403084F8413084F8423084F842
:108C8000433084F8443084F8453084F83D3010BDDA
:108C9000022380F83D300368DA6842F00102DA60AE
:108CA0000B4A93420AD0B3F1804F07D0A2F5943219
:108CB000934203D002F58062934204D19A6802F095
:108CC0000702062A03D01A6842F001021A607047B0
:108CD000002C014013B500211920FFF7B7FC4FF01D
:108CE00000721B4B1B4C1A601B4B20469A6942F4C6
:108CF00000629A619A6902F400620192019A5A68CC
:108D00005A685A685A68154A12685B68144AC3F36D
:108D1000C223D25C134B1B68D340134AB3FBF2F35C
:108D2000124A013B2260636040F2E7320023E260B6
:108D30002361A360FFF72CFF94F83D30012B05D190
:108D4000204602B0BDE81040FFF7A2BF02B010BD40
:108D500000E100E024310020001002400020024029
:108D6000143501082402002040420F00002C01406D
:108D700090F83C3010B5012B21D0022380F83D3013
:108D8000036809685A689C6822F070020A435A60B6
:108D90000B4A93420AD0B3F1804F07D0A2F5943228
:108DA000934203D002F58062934202D124F0800402
:108DB0009C60012380F83D30002380F83C3010BDDA
:108DC000002C014030B50C68631C0AD103695A6855
:108DD0004A6091608B6059600368086101330360E9
:108DE00030BD00F10802134652681568A542FAD951
:108DF000EDE70369D0E901128A6051605968814248
:108E000008BF5A6000220261186801381860704774
:108E1000024A136801331360704700BFA830002076
:108E2000C36870B50BB9FFF7EDF99A6AD3E907018A
:108E30008160D8694860516803F11800814204BF1D
:108E4000196A516000219962116801391160204A44
:108E50001268002A2FD1D3E902015A69816098680B
:108E60001C1D486051681B48A14208BFD9680568AD
:108E700008BF51601168013911600121DA6A91401F
:108E8000294301601420424313498D186868986093
:108E90008668DE607460846088585D610130885047
:108EA0000E4A1168DA6ACB6A9A4285BF01200C4BE0
:108EB0000020186070BD0B4A5168D9618C681C6233
:108EC0006060886011689A6201311160E8E700BF54
:108ED000A8300020A43000201830002000300020EE
:108EE000FC2F002004300020F8B504460127FFF7CE
:108EF00093F990F84550164E6DB2002D01DD636A6E
:108F0000B3B9FF23012784F84530FFF79FF9FFF736
:108F100083F994F844500E4E6DB2002D01DD2369A3
:108F200073B9FF2384F84430BDE8F840FFF78EB9E9
:108F3000206BFFF775FF00B13760013D6DB2DCE7D4
:108F4000E069FFF76DFF00B13760013D6DB2E4E706
:108F5000FC2F002008B9054B1868026B0020135C39
:108F6000A52B01D0800870470130F8E700300020C1
:108F7000064A13681968064B19B94FF0FF321A6098
:108F800070471268D2681268F9E700BFF82E002017
:108F9000EC2E00202DE9F84F554B1B68002B40F0BC
:108FA000A080544B1C6801341C6084B9524B1A6871
:108FB00012680AB1FFF726F9504A1968106818605C
:108FC00011604F4A136801331360FFF7D1FF4D4D15
:108FD00000222B684C49A342DFF830C109D84FF07A
:108FE0001408454F4A4E3B681B689BB94FF0FF334E
:108FF0002B604848DCF8003004681420DB6A4343E7
:10900000C858012898BF002C14BF0120002010432D
:10901000BDE8F88F3B68DB68DB685868844201D2A2
:109020002860E6E7D3F81490D3E902E0CEF8080010
:10903000D3F808E0C0F804E0D9F8040003F1040E06
:10904000704504BFD868C9F80400D9F80000013899
:10905000C9F80000D3F82890B9F1000F17D0D3E970
:1090600007A0CAF80800D3F81CA0C0F804A0D9F8DB
:10907000040003F1180A504504BF186AC9F8040037
:1090800000209862D9F800000138C9F800000120DA
:10909000D3F82C90D6F800A000FA09F008FB09F9E3
:1090A00040EA0A0001EB090A3060DAF8040098602F
:1090B000D0F808B0C3F80CB0CBF804E0C0F808E072
:1090C00051F80900DCF800E00130C3F814A041F8C1
:1090D0000900D86ADEF82C30984288BF42F00102BD
:1090E00081E70D4A002013680133136090E700BF49
:1090F000A8300020642F0020F82E0020F42E00203D
:10910000302F0020EC2E00201830002000300020EE
:10911000A4300020FC2F0020F02E00202DE9F84F75
:10912000FFF77AF8514B1A6842B94FF0500383F3B6
:109130001188BFF36F8FBFF34F8FFEE71A68013AB4
:109140001A601B6823B10020FFF780F8BDE8F88F94
:10915000474A1268002AF6D09E4601264FF0140CAA
:109160004448454C454A464F464D59E0C368DB6884
:10917000D3F82880D3E90791C9F80810D3F81C90D8
:10918000C1F80490D8F8041003F11809494504BF48
:10919000196AC8F80410D8F80010C3F828E001399B
:1091A000C8F80010D3F81480D3E90291C9F8081068
:1091B000D3F80890D4F800A0C1F80490D8F80410AF
:1091C00003F10409494504BFD968C8F80410D8F868
:1091D00000100139C8F80010D3F82C8006FA08F105
:1091E0000CFB08F841EA0A0102EB080A2160DAF8F0
:1091F00004109960D1F808B0C3F80CB0CBF8049013
:10920000C1F8089052F80810C3F814A0013142F8D0
:1092100008103968D3F82C80C96A884500D92E60B7
:1092200001680029A2D10BB1FFF7A2FE164D2C68F0
:1092300044B10127134EFFF7ADFE00B13760013C8A
:10924000F9D12C600F4B1B68002B3FF47CAF0C4B0B
:109250004FF080521B684FF0E023C3F8042DBFF39A
:109260004F8FBFF36F8F01206EE700BFA830002043
:109270002C2F002004300020A430002018300020C3
:1092800000300020FC2F0020F02E0020054B1B6832
:1092900033B1054B1868B0FA80F0400940007047C0
:1092A00001207047282F0020A8300020174B2DE9FF
:1092B000F0411C68164B174D1E68174B80461F68FF
:1092C00028680430FFF795FD40B92A681349D06A31
:1092D00001220B68824023EA02030B602B68296895
:1092E00014EB08045C6001F1040104D33846BDE8C6
:1092F000F041FFF767BD3046FFF764FD084B1A6881
:10930000944238BF1C60BDE8F08100BF642F00208C
:10931000F82E002000300020F42E0020A430002081
:10932000EC2E002010B5FFF773FD174B174A1B6892
:109330001268012A08D04FF0500383F31188BFF35D
:109340006F8FBFF34F8FFEE7026889182CBF01248F
:10935000002493420FD27CB90160FFF7DFFE48B9C9
:109360004FF0E0234FF08052C3F8042DBFF34F8F2E
:10937000BFF36F8F10BD0CB98B42EDD20160C81ADC
:10938000FFF794FFE9E700BF642F0020A83000201A
:1093900038B5184CFFF73CFDFEF73EFF2368DB6D48
:1093A000FBB1FEF753FF0025FFF7B8FE55B148B9F2
:1093B0004FF0E0234FF08052C3F8042DBFF34F8FDE
:1093C000BFF36F8FFEF728FF2368D86D10B100221E
:1093D0002368DA650022236883F86020FEF736FFF1
:1093E00038BD0125236883F86050FEF72FFFFFF793
:1093F0005DFFD9E70030002000207047704714233C
:1094000070B50446002503FB0106B44201D128468D
:1094100070BDA368002BFAD0E3681BB90135ADB26B
:109420001434F2E798470028F8D1F9E70A4B588A34
:1094300080B278B1188980B260B11A89188992B265
:10944000052A94BF42F210734EF6602380B288BFA3
:1094500005385843704700BF382E002038B5114AF0
:10946000538A9BB20BB9002038BD13899BB2002BE5
:10947000F9D00D4A0D4B14681B6853EA04020FD053
:109480000B4D2968C91AFFF7D1FF8142EBD9286833
:10949000041BFFF7CBFF844294BF00200120E3E7C9
:1094A0000120E1E7382E0020D42E0020D82E002005
:1094B000642F0020074A32F83030994205D302EB7E
:1094C000C00253888B4228BF0B46034A02EB40027E
:1094D000938070470E000020382E002030B50D4BD1
:1094E0000D4D03EB40039A8805EBC004618892B2EE
:1094F0008A4203D135F830209A8006E0A288988805
:109500008C1A80B2A04201DB998030BD99880A4450
:10951000F2E700BF382E00200E0000201421D0E911
:10952000003212881B6801FB02335A6802B11047EF
:10953000187C372801D8FFF7D1BF7047012070474A
:10954000B8B91A4B5B8C9BB2834240F2523308BFCE
:109550004FF4E173154A164902EB400201EBC001DA
:109560009288898892B25B1A9A42D4BF0020012067
:109570007047162804D10D4B5B8C9BB2002BE4E79F
:10958000012809D1094B5B8C9BB2002B0CBF4FF417
:1095900096734FF41173DDE71F2804D0044B03EBDF
:1095A000C0035B88D6E70120704700BF382E00203B
:1095B0000E000020034B588980B2003818BF0120EC
:1095C000704700BF382E00200E4B198E5B8C89B27D
:1095D0009BB253B189B140F25133143189B29942EF
:1095E00088BF00211620FFF765BF49B10A3189B253
:1095F000B1F5E17F88BF1946F4E74FF4F071F1E768
:10960000FA21EFE7382E0020034B588A80B2003849
:1096100018BF0120704700BF382E00200A4BD988A0
:109620005B8C9BB243B1143189B2B1F5117F88BF15
:109630003C210120FFF73EBF0A3189B2B1F5967F88
:1096400088BF0A21F5E700BF382E00200F4A02EB41
:1096500040039B88528C9BB292B27AB103EBC30158
:109660000523B1FBF3F120310A2389B2B1FBF3F1F9
:1096700001EB8101490089B2FFF71CBF0922203BA1
:1096800003EB830393FBF2F1EEE700BF382E0020DB
:1096900008B50F20FFF722FF1620FFF7D7FF0020A5
:1096A000FFF7D4FFBDE808400120FFF7CFBF00005F
:1096B000034BD88A80B2003818BF0120704700BF22
:1096C000382E0020034B188D80B2003818BF0120BF
:1096D000704700BF382E002010B5234B98689B6858
:1096E000C0F30020C3F3802383F0010380F0010066
:1096F00040EA430010F0FF001FBF1C4B1A681C4BD0
:109700001A601C4A1378834212D180B1174B1A4A4F
:109710001B6812689B1AB3F5C87F21D30122174B2F
:1097200090421A701ED0022814BF2020082010BDBD
:1097300038B10343002013700C4B1A680E4B1A60AB
:10974000F5E70E490C784CB9012B02D0022B18BF5B
:1097500010230020107008701846EDE70346F8E764
:109760000020E4E70420E2E700080140642F002025
:10977000D42E0020FC1F0020F81F0020F41F002022
:1097800001220D4B1A6102221A610F2200BF013A19
:10979000FCD14FF400321A610F2300BF013BFCD112
:1097A0004FF48033044A13610F2300BF013BFCD107
:1097B00002231361704700BF000C01404FF40033D7
:1097C000094A13610F2300BF013BFCD10123136140
:1097D0000F2300BF013BFCD10222034B1A610F2370
:1097E00000BF013BFCD17047000C014002230A4A34
:1097F00013610F2300BF013BFCD1012313610F2331
:1098000000BF013BFCD14FF48032034B98681A61D2
:10981000C0F34000704700BF000C01400A4B80B10C
:1098200002221A610F2300BF013BFCD10123064A2B
:1098300013610F2300BF013BFCD14FF48033136150
:1098400070474FF40032ECE7000C014010B50821DE
:10985000044604F080000139FFF7E0FF11F0FF013A
:109860004FEA4404F5D10222044B1A61FFF7BEFF10
:1098700080F0010000F0010010BD00BF000C0140AD
:10988000014B1868704700BF642F0020002301229D
:1098900013B50A488DF807304468114600780DF179
:1098A0000703A04738B19DF807000138C0B2FD2872
:1098B0008CBF0020012002B010BD00BF6025002039
:1098C00010B5064C236823B9FFF7E0FF08B1012368
:1098D00023602068431E5842584110BDEC1F0020F1
:1098E00038B5FFF7EDFF024608B3144B144DB3F83B
:1098F000443095F83110E1B995F8301001F0FF00CF
:10990000A1B995F83411192915D095F834110C29FD
:1099100011D013F0FF0409D02B6998476B6CC01A63
:1099200064236343984294BF0020012038BD012086
:10993000FCE70020FAE71046F8E700BF382E0020C9
:10994000F829002013B50122446801AB0078A04734
:1099500008B19DF8040002B010BD000037B5064CF8
:109960008DF8071001220146A56820780DF1070344
:10997000A84703B030BD00BF60250020064AD2E9E9
:109980003A03834203D192F8F0008000704798BFF9
:109990000433181A704700BFF829002070B50F4C27
:1099A0001546A163226CA36B06461A4209D1A36B2C
:1099B0009A0708D5FFF7E2FF28B1236C43F00203B2
:1099C0002364304670BD6B1C84F8346002D10026DD
:1099D000E563F6E7236998470544F8E7F82900208E
:1099E000F8B59378044603F01F030D2B1D4D03D1EA
:1099F000D37813F0700332D0164685F8361085F808
:109A000035405488432124F46064548095F82D3007
:109A100028785B0203F460631C4326F8024FC4F30A
:109A20000234A400104B023464F07F02AF681A7154
:109A30000522B847334622464321AF682878B84705
:109A400004224321AC68094B2878A047BDE8F840C0
:109A50004FF0FF3240F203610120FFF79FBF85F80E
:109A60002D30F8BDF82900200000002098240108BE
:109A700090F83C30F0B5012B24D00368184E1A6AD8
:109A8000B34222F001021A621A6A5D689C6924F0EE
:109A9000730444F0600416D022F0020249685D604D
:109AA0009C6159631A629A6942F008029A619A6944
:109AB00022F004029A619A6942F004029A6100233A
:109AC00080F83C30F0BDCE6822F00A02324325F423
:109AD0004075D1E905673E4322F004023543DDE7D6
:109AE000002C014070B569B947F6F8721C4B9B68B1
:109AF000C3F38F03934205D91A4A1378FF2B1CBF77
:109B000001331370184C2378F3B9184A184D1368B1
:109B10008342C8BF1060174BB9B919602B685B1A34
:109B200044F620618B420FD9134B12681B68934295
:109B30000ADD01219B1A022B217005DC094A1378EA
:109B4000FF2B1CBF5B18137070BD0B490E6886425B
:109B5000B8BF086019680029E0D12968DDE700BFB7
:109B6000242E00200C2E00207C250020D001002077
:109B7000642F00207825002074250020F8B50446C5
:109B800040B94FF0500383F31188BFF36F8FBFF3D9
:109B90004F8FFEE7016C41B14FF0500383F3118802
:109BA000BFF36F8FBFF34F8FFEE7FFF76FFBFEF73B
:109BB00033FBA26BE36B9A4280F08180226CA66B30
:109BC000002A6DD12368ABB10023626A0136A66317
:109BD000002A72D0206BFFF723F900286FD04FF0D6
:109BE000E0234FF08052C3F8042DBFF34F8FBFF333
:109BF0006F8F64E0A5681DB900230022A260E4E72E
:109C0000314B1B689D4208D04FF0500383F31188FD
:109C1000BFF36F8FBFF34F8FFEE7AB6D43B94FF0CC
:109C2000500383F31188BFF36F8FBFF34F8FFEE7AD
:109C3000E96A6A6D013B9142AB65DDD0002BDBD157
:109C40002F1D3846FFF7D5F8204930B90122E86AC0
:109C50000B68824023EA02030B606B6DD1F800C0F1
:109C6000C3F10702AA61012202FA03F040EA0C00E4
:109C700008601420EB624343154901EB030CDCF848
:109C80000400A860D0F808E0C5F80CE0CEF8047035
:109C90008760C858C5F814C01044C8501346ACE7D4
:109CA000606806F020FE6368226C1344A26863605B
:109CB000934289D32368636086E7002B8FD1BDE888
:109CC000F840FEF7C3BA00BF00300020A4300020E7
:109CD00018300020482373B50193019B0446482B9C
:109CE00008D04FF0500383F31188BFF36F8FBFF399
:109CF0004F8FFEE70021019B01232060C0E90F3157
:109D0000FEF78AFAD0E90F356B4302688163D618F3
:109D10005B1B42601A44FF23C2604FF0FF3280F8A1
:109D2000443080F8453000F11803C0E90623436150
:109D3000036200F12C03C0E90A32C0E90C338660EB
:109D400001614162FEF782FA81600160C160FFF744
:109D500015FF204602B070BD014B1868FFF70EBF1B
:109D6000AC20002070B50146FFF708FE00B3114A91
:109D700089B1D2F8E83002F1680404EB43140B46D1
:109D800004F12006254603CDB542186059602C46E3
:109D900003F10803F6D1D2F8E83092F8F01001335D
:109DA00003F00303C2F8E83011B10BB982F8F030C8
:109DB00070BD00BFF829002010B51A4C88B0236C84
:109DC00003F07F432364FFF7D9FD30B9236C43F0E0
:109DD0000803236494F8360021E06846FFF7C2FFC9
:109DE0009DF8023003F01F03012BECD19DF80330E6
:109DF00003F07003002BE6D1BDF8023094F82D205B
:109E0000C3F342239342DED1013303F0070384F806
:109E10002D30236C43F00403236494F83500C0B262
:109E200008B010BDF82900202DE9F7438046DDE990
:109E30000A54894617461E4645B94FF0500383F32E
:109E40001188BFF36F8FBFF34F8FFEE744B94FF018
:109E5000500383F31188BFF36F8FBFF34F8FFEE77B
:109E600064230193019A9A4208D04FF0500383F380
:109E70001188BFF36F8FBFF34F8FFEE7002120469D
:109E8000BF00019B06F0DAFC284625633A46A5216F
:109E900006F0D4FC256BB9F1000F0FD009F1FF33A8
:109EA00004F1330209F11F0113F8010F02F8010F49
:109EB00008B18B42F8D1002384F85330062E08D91C
:109EC0004FF0500383F31188BFF36F8FBFF34F8FB1
:109ED000FEE700234FF08071043FEA19E6626665F1
:109EE00022F00702C6F107066361A3622461A6613E
:109EF000646242F8041C28F0010142F8081C3E4943
:109F000042F8203C42F80C1C403A2260FEF784F9EB
:109F10003A4B3B481A6801321A600268002A60D145
:109F200004601B68012B2AD14FF0FF361546354BD4
:109F30000132072A43E90136C3E9013343F8085CDB
:109F400003F11403F4D1304A02F10803C2E90136E7
:109F5000C2E903332D4B156003F10801C3E9011673
:109F6000C3E903112A491D6001F108070D60C1E929
:109F70000176C1E9037727490A60274A1360274A17
:109F8000274913680D68013313600122E36A261D17
:109F90009A402A430A6014214B43224AD518696823
:109FA000A1608F68E7607E608E60D1586561013185
:109FB000D150FEF74BF91C4B1B6873B10368DA6A8A
:109FC000E36A9A4209D24FF0E0234FF08052C3F87F
:109FD000042DBFF34F8FBFF36F8F204603B0BDE852
:109FE000F083114B1B68002BC9D10368DA6AE36A5E
:109FF0009A4298BF0460C2E7E38100082C2F00203A
:10A000000030002020300020102F0020FC2E0020E7
:10A0100004300020F82E0020F42E0020242F0020F1
:10A02000A430002018300020282F002037B5D0E9B8
:10A0300000148569B0F90830026901954069842BE4
:10A04000009008BF0023204618BF0333FFF7ECFE43
:10A0500003B030BD034B4FF400720021186806F0C6
:10A06000EDBB00BFDC2E00202DE9F041AB4C88B0E9
:10A0700094F8346194F83431F6B20F2BDDB200F06D
:10A08000928263D8072D00F053811BD8032D00F076
:10A09000118108D8012D00F04283022D40F0168373
:10A0A000FFF78AFEAAE1052D00F00881062D07D1F1
:10A0B000226C236C23EA02032364930640F10E8191
:10A0C0000523F8E00B2D00F0A8812ED8092D00F013
:10A0D00079810A2D40F07081236C03F07F43236463
:10A0E000FFF74CFC002800F071818D48FFF73AFE25
:10A0F000B4F84A3003F01F02032A40F06D81B4F82F
:10A10000163103F4E043A3F500577B427B4184F80A
:10A11000723194F872311BB123699847C4F83C013D
:10A1200041F2883203210B20D5E00D2D00F033825F
:10A130000E2D40F09F81E18D636901F0C0017F2900
:10A1400094BF002101217648984729E2172D00F09D
:10A150007B825DD8132D00F03D820ED8112D00F0CA
:10A160003082122D40F01F83E38D0F2143F00D0349
:10A1700013206B4AA4F84A3021E1152D00F05282D9
:10A18000162D40F03182B4F84C50690500F163821D
:10A190004FF01A08C5F3C32508FB05F8002D40F061
:10A1A0007C82604B03F1F60203F1180C1746186825
:10A1B0005968083303C763453A46F7D118683860D1
:10A1C0009B88BB80B4F84A70C7F3023308EB83085E
:10A1D000B4F84231A8F10208C3F30803984580F2AD
:10A1E00069821A220021504806F028FBE38D07F00F
:10A1F0001F0701351F43ED0247F4104745F404459E
:10A200000F211720464AA4F84A70A4F84C50D6E013
:10A210001B2D00F09F822CD8192D00F04D821A2D95
:10A2200040F0E580236998474049C4F83C01E36960
:10A2300001F12C009847002800F08A82D4F81831E8
:10A240001B0F04EB8303D3F8403103F04042B2F11B
:10A25000404F40F07B8213F0405F0CBF012300238E
:10A26000E28D84F83531B4F816311343A4F8163171
:10A270009EE01C2D00F083821D2D40F09482FFF79C
:10A280007DFB002800F01F822548FFF76BFDB4F826
:10A290004A3003F01F03102BF1D194F84E30042BF9
:10A2A000EDD1002384F83130236998470C25C4F898
:10A2B0003C0108E2042384F83431A1E0002384F84F
:10A2C000303084F8353123642369984742F21072A4
:10A2D000606423210620FFF761FB8FE0FFF74EFB50
:10A2E00000283FF4EDAE0E48FFF73CFDB4F84A20DD
:10A2F00002F01F03012BF1D112F4E04FEED0E38DF9
:10A3000013F0C00F08D102F0C0027F2A8CBF43F0C7
:10A31000800343F04003E3850723CCE7F8290020BE
:10A32000402A0020422A0020462A00200C2B002030
:10A33000FF2384F833300023B4F84A20A849C2F33D
:10A34000023293420CD051F8040F013300F0404523
:10A35000B5F1404FF5D110F0405FF2D184F83330C1
:10A36000E36CA049C3F3C062C3F3C05384F82C204C
:10A37000A1F1CC0084F87131A3699847002800F05E
:10A38000E781E38DB4F816211A4303F0C003802B54
:10A39000A4F816210CD1D4F81831002B4FEA13720F
:10A3A00008DB94F833309A4204D3012384F8353122
:10A3B000082380E70023F9E70F210920894AFFF7E6
:10A3C0000FFB1BE0236C03F07F43236440F68C22D9
:10A3D00040F603010A207EE70D2A00F0B08003F06A
:10A3E0001703042B7FF47CAE94F830302BB14FF080
:10A3F000FF3243F6FF710C206DE7052084F834012D
:10A4000094F834319E427FF433AE94F83431002B0B
:10A410007FF42EAE08B0BDE8F081236C03F07F43DB
:10A420002364FFF7ABFA08B9122344E76C48FFF73F
:10A4300099FCB4F84A3003F01F03062B17D1002310
:10A4400084F8313094F8713163B194F870314BB1C4
:10A4500094F8723133B9012384F83130236C43F41A
:10A4600080532364012384F830300C2323E7012B2D
:10A47000D7D151E7236C226C5D0622EA03022264E5
:10A480007FD498067FD413F4C07F7ED1D9047ED4C4
:10A490009A047ED49F07AAD5FFF770FA0028A6D0A9
:10A4A0004F48FFF75FFCB4F84A3003F01F020F2A51
:10A4B00013D113F4E04FEFD1E18D01F0C0018029F9
:10A4C000EAD11D0453D5B4F84C10C1F30801192981
:10A4D0004DD9112A08BF162050E0052A03D113F4E4
:10A4E000E04FD9D0E8E7092A03D113F4E04FE3D1D4
:10A4F00006E0072AF9D00A2A04D113F4E04F20D14C
:10A5000015207BE70B2AF0D0022AF9D0042A03D1C8
:10A5100013F4E04FD0D0F3E7012A04D113F4E04F55
:10A52000CAD007206AE7082A04D113F4E04FC3D148
:10A530000E2063E70D2ABFD113F4E04FBCD11120E8
:10A540005CE794F84A30032B03D1012384F872317D
:10A55000A2E7042B04D100230C2084F872314DE7CC
:10A56000052B99D10023062084F8723146E723F4A5
:10A570007E635B045B0C102B08BF182018BF1520EE
:10A580003CE708203AE70F2038E70D2036E71B208C
:10A5900034E71C2032E7E38D43F00703A4F84A3088
:10A5A0000F210F4A49E094F832305BB2022B06DCEF
:10A5B00094F83230013384F8323010237BE61923CB
:10A5C00079E6E38D6A4643F00D030F210520ADF8CF
:10A5D0000230F4E640F68C2240F6030114207AE6BD
:10A5E000402A00200C2B0020236C03F07F432364BF
:10A5F000FFF7C4F908B90F235DE66C48FFF7B2FB1B
:10A60000B4F84A3003F01F02032A03D113F4E04FD9
:10A61000F1D155E523F47E635B045B0C0D2BEAD18D
:10A62000112348E6E38D03F0C002402A07D143F02E
:10A630000403A4F84A3012215C4A0C20BFE6802AA9
:10A64000F9D143F01003F4E7226C236C900723EA5E
:10A650000203236405D44FF0FF3243F6FF71172045
:10A6600039E6FFF78BF90028F5D05048FFF77AFB61
:10A67000E38D03F0C003802BF3D1B4F94A20B4F882
:10A680004A30002AEDDAB4F84C20C2F30802192A45
:10A69000E7D903F01F03112B1CE7B4F84A2008F593
:10A6A000A270C2F3023292004149023A204406F0FD
:10A6B0001AF987E51A20A1E600234FF4FA6084F81E
:10A6C0003030236A984784F8345199E623699847D3
:10A6D000E36B984282BF236C43F400632364236CD2
:10A6E00013F4006F236C0ED003F07F43236494F8BF
:10A6F0003430102B7FF698AE94F83430142B94BF7E
:10A7000003231223D7E5DA073FF557AF236CA26B7B
:10A7100013403FF4D0AD94F83430DBB2CBE5236C7A
:10A72000226C22EA03029B05226408D5FFF726F972
:10A7300000287FF4B5AC022178220846CBE5236CD3
:10A7400043F00803236494F8360057E6002387E5B6
:10A750000623B0E523699847E38DC4F83C0143F430
:10A76000805343F00A03A4F84A3094F870311B0474
:10A7700043F08073E36413E70020FFF7F3FAFFF779
:10A78000FDF80028F8D1012384F83130E38D0C2145
:10A7900043F4104343F01003A4F84A30054B1D2046
:10A7A000024AE3640BE6032385E500BF402A00204C
:10A7B000462A0020028003004FF0E0254FF080562B
:10A7C00008B5064C2368012B05D9C5F8046DBFF305
:10A7D0004F8FBFF36F8F05F05DFEF3E71830002059
:10A7E00038B505460C46FFF735FC284605F0F4FC65
:10A7F00041F28830054B064A1B6812689B1A834257
:10A8000098BF002C14BF0120002038BD642F002009
:10A81000D42E002070B504460D46FFF71BFC2246DF
:10A820000123117849BB013B03EB43039B009BB21F
:10A83000802B2CD9194A928C92B2012A14BF14226F
:10A840000A22B5FBF2F103F1800209B291FBF2F0AA
:10A8500002FB10117F291FDD8B42A8BF0B46104A57
:10A86000C3F18003138000230E4A20461380012188
:10A87000BDE87040FF2205F089BCF02902D8013202
:10A880000133CEE751780029CDD00232F8E7C3F189
:10A89000800203EB6203E2E78023E0E7382E00202A
:10A8A000362E0020342E00200B4BB3F850200B4BDB
:10A8B00092B2012A1B7805D0022A08D0FF2200217B
:10A8C000074802E0FF220021064805F05FBCFF2296
:10A8D00000210548F9E700BF382E0020362E002061
:10A8E000AB1D01089E1D0108B61D01080B4BB3F8F6
:10A8F0007030DBB2022B0DD0032B0DD0084AA2F131
:10A900000B00012B08BF1046064BFF2200211B78CD
:10A9100005F03CBC0448F7E70448F5E7382E002072
:10A92000CB1D0108362E0020D61D0108E11D0108AF
:10A9300010B4084B084C588C0023DFF820C080B2BC
:10A9400098420CBF6046204610BCFF22012105F052
:10A950001DBC00BF382E00201C0901082109010878
:10A96000084BFF22198A002389B2012906D0022947
:10A970004FF0010104D0044805F008BC0348FBE790
:10A980000348F9E7382E00209D170108CD1F010864
:10A99000CF1F010840F6953240F6913010B4074BB6
:10A9A000074C9B8C01219BB2002B18BF1046002343
:10A9B0002044FF2210BC05F0E9BB00BF382E002068
:10A9C0004014010810B50C4A53899BB27BB1012396
:10A9D0005089194602301A4680B205F01FFC002348
:10A9E000FF2201210548BDE8104005F0CFBBFF2242
:10A9F00001210348F7E700BF382E00201E09010897
:10AA00002009010870B501230A240E4D1A46A889B1
:10AA1000194680B2B0FBF4F005F000FC0023FF22E1
:10AA20000121094805F0B2FBA88980B2B0FBF4F31C
:10AA300004FB1300BDE87040012380B21A4619469A
:10AA400005F0ECBB382E002023090108034B02213E
:10AA5000588F012380B21A4605F0E0BB382E002043
:10AA6000034B0221188F012380B21A4605F0D6BB92
:10AA7000382E0020034B0321D888012380B21A46C8
:10AA800005F0CCBB382E0020034B588D012380B23B
:10AA90001A46194605F0C2BB382E0020034B988D8C
:10AAA000012380B21A46194605F0B8BB382E0020A3
:10AAB0002DE9F04F9A46FF2385B00B7041F28833A1
:10AAC000138088461746029005F0BEFD4FF0000B3C
:10AAD000634BB3F85090431DDBB25FFA89F9B9F1CB
:10AAE000010F08BF18465F4B0193029B5B4507D1DE
:10AAF00098F80000FF3818BF012005B0BDE8F08FBE
:10AB0000019A5B4652F8044BB4F1804F019227D270
:10AB1000322146F65F55C4F389224A43511EA942A9
:10AB200009D844F620618A4208D8C4F30904B2FB6C
:10AB3000F4F1814206DD0BF1010BD6E7B9F1000F0C
:10AB4000F3D1F8E739888A42F5DD88F80030002330
:10AB50003A800E9AAAF8004013700F9A1370EAE731
:10AB600004F04042B2F1404FE5D1B9F1000FE2D01C
:10AB70003C4A1268120202D514F0405222D104F06D
:10AB80007F01C4F3474404EB840404EB8404A20073
:10AB900044F6206492B2A242A8BF224601EB810192
:10ABA00001FB00F4A242A8BF22463C88A242C2DDBB
:10ABB00088F8003001233A800E9AAAF8001013702A
:10ABC0000023CAE7B2F1805FB5D1CDF80CB005F033
:10ABD0003BFD0A22C4F34845E4B24443B4FBF2F41B
:10ABE00005EB850505EB8505AD00039BADB2ACB368
:10ABF000012C33D04FF400464FF0100C4FF0804E34
:10AC00003146002274452CBF32468A43BCF1010C08
:10AC100001D1164606E0490841EA020606FB06FE97
:10AC20007445EFD146F660514FF47A728D4228BFD9
:10AC30000D467243954228BF15463A8895427FF6E5
:10AC40007AAF88F800303D800123B5FBF0F50F9A0C
:10AC5000AAF80050137000230E9A7FE72646E1E71A
:10AC6000382E0020CC290020F0B52C2205460C46B9
:10AC70003D48002185B005F0E1FD3B4A2B1D1746FC
:10AC80002C35164618685968083303C6AB4232465D
:10AC9000F7D11868FF2330608DF80B300023ADF832
:10ACA0000E30ADF80C308DF80A308DF809300DF10A
:10ACB000090301930DF10A0300930DF10E0203AB9A
:10ACC0000B200DF10B01FFF7F3FE09222023A270E8
:10ACD000E37000283BD09DF80B00BDF80E2057F81C
:10ACE0002030BDF80C10A3609DF80930DBB10525BC
:10ACF00019260B1DB3FBF5F3B2FBF6F61B4D03F063
:10AD00007F0305EA46252B4301304A4343EA00739B
:10AD100043F0A0736360164BB2FBF3F2154B1A605D
:10AD2000012005B0F0BD9DF80A3053B105250B1D7B
:10AD3000B3FBF5F31426104DB2FBF6F603F07F03D8
:10AD4000DFE70E4BC1F3090503EA8123DBE73B682C
:10AD5000A360642323716FF06F0363710123A371F8
:10AD60001123E371DCE700BFCC29002000F80F00BD
:10AD7000A08601008025002000FE0F0000FC0F00CF
:10AD8000F0B506462C220C463648002185B005F069
:10AD900055FD344A331D06F11C07154618685968DD
:10ADA000083303C5BB422A46F7D118682E4B2860EA
:10ADB00001251D70FF2370888DF80B300023ADF83E
:10ADC0000E30ADF80C308DF80A300DF10903019307
:10ADD0000DF10A0300930DF10E0203AB0DF10B010F
:10ADE000C0F30230FFF764FE02221023A270E3706A
:10ADF00078B39DF80B009DF80A30BDF80E20BDF821
:10AE00000C102844E3B1052514260B1DB3FBF5F304
:10AE1000B2FBF6F6154D03F07F0305EA46252B43FA
:10AE200043EA00734A4343F0807343F48003636052
:10AE30000F4BB2FBF3F20F4B1A60012005B0F0BDCF
:10AE40000D4B03EA812343EA0073C1F30900034376
:10AE5000E8E7642323716FF06F0363711123A57119
:10AE6000E371EAE7CC2900207D25002000FE0F00D9
:10AE7000A08601008025002000FC0F00F8B500230B
:10AE80000A276FF06F060125C3710771467185713E
:10AE9000044605F0D9FB42F22833B3FBF0F3C3F3C9
:10AEA000090343F43433A36005F0CEFB43F6982343
:10AEB000B3FBF0F3C3F3090343F49623E36005F017
:10AEC000C3FB44F62063B3FBF0F3C3F3090343F47D
:10AED000C82323610423E3716FF07B03A370402335
:10AEE00027716671A571E370F8BDC0F11100C0B2A1
:10AEF00005F0EAB9034B988B80B2003818BF0120E7
:10AF0000FFF7F3BF382E0020034BD88E80B20038F5
:10AF100018BF0120FFF7E9BF382E0020044BB3F81B
:10AF2000720080B2003818BF0120FFF7DEBF00BFFB
:10AF3000382E0020034B988A80B2003818BF0120B9
:10AF4000FFF7D3BF382E0020034BD88B80B20038D8
:10AF500018BF0120FFF7C9BF382E0020034B188C03
:10AF600080B2003818BF0120FFF7BFBF382E002085
:10AF7000044BB3F84C0080B2003818BF0120FFF733
:10AF8000B4BF00BF382E002070B5104B0021D88D03
:10AF90000A2680B205F0E6FAB0FBF6F50446012376
:10AFA000A8B20022022105F039F90023FF22194638
:10AFB000074805F0EBF8012306FB1540BDE870409B
:10AFC0000022194680B205F029B900BF382E0020B2
:10AFD0001C09010810B50B4B0146D88D80B205F055
:10AFE000C1FA044605F030FB48B16443B4FBF0F00D
:10AFF000054BC0EB00201B88B0FBF3F010BD6420B4
:10B00000FCE700BF382E0020342F002010B5041EAE
:10B01000084606DC084BD88D80B205F0A3FA002064
:10B0200010BDFFF7D7FFC4EB0424B4FBF0F0FF28FA
:10B0300028BFFF20C0B2F3E7382E002010B5012151
:10B04000FFF7E4FF134B902804461A781BD90AB186
:10B0500000221A7014211A780F4B002019800F4B10
:10B060001A700F4B1C70FFF7B5FFFF23E821444314
:10B070000C4AB4FBF3F413684B43182101FB04336F
:10B080001B0A136010BD6F28E4D8002AE2D1012208
:10B09000DFE700BF0C0000203A2F0020372F0020F0
:10B0A000382F00205C25002007B5054B00210093B8
:10B0B00020235E201A4605F00BF903B000BD00BF47
:10B0C000202C0108054BB3F8440080B220B10123C5
:10B0D00002211A4605F0A2B8FFF7E6BF382E00207D
:10B0E000064A138E9BB233B10123108E03211A46F8
:10B0F00080B205F093B8FFF7D7BF00BF382E00200D
:10B100000C4B198B89B202290AD003290DD00129D1
:10B1100001D0FFF7C9BF0023FF22074805F036B86A
:10B120000023FF2201210548F8E70023FF22012127
:10B130000348F3E7382E0020D11F0108D71F01086C
:10B140009D170108094BD98C89B2012903D0022926
:10B1500006D0FFF7A9BF0023FF22054805F016B867
:10B160000023FF2201210348F8E700BF382E00200A
:10B17000D91F0108D51F0108064A538A9BB233B173
:10B18000508A01220023114680B205F047B8FFF72C
:10B190008BBF00BF382E002010B5154B1A8992B214
:10B1A0001AB9BDE81040FFF77FBF1A89188992B21B
:10B1B000052A10D8012300EB800040001A46022126
:10B1C00080B205F02BF80023FF2201210948BDE8D9
:10B1D000104004F0DBBF012305381A46022180B27B
:10B1E00005F01CF80023FF2201210348EFE700BF10
:10B1F000382E0020250901082709010810B50B4A3F
:10B20000538B9BB21BB9BDE81040FFF74DBF012324
:10B21000508B02211A4680B205F000F8BDE81040BC
:10B220000023FF220121024804F0B0BF382E002085
:10B23000270901080C4BD98A89B2022908D00329B1
:10B240000BD001290ED10023FF22084804F09EBF35
:10B250000023FF2201210648F8E70023FF220121F5
:10B260000448F3E7FFF720BF382E0020D11F010864
:10B27000D31F0108D51F010810B50B4A938E9BB24E
:10B280001BB9BDE81040FFF70FBF0123908E0321CB
:10B290001A4680B204F0C2FFBDE810400023FF222E
:10B2A0000121024804F072BF382E0020290901084C
:10B2B00070B5134D2B8D9BB2EBB10A240123288D61
:10B2C0001A4680B21946B0FBF4F004F0A7FF002341
:10B2D000FF2201210B4804F059FF288D80B2B0FBFA
:10B2E000F4F304FB1300BDE87040012380B21A465A
:10B2F000194604F093BFBDE87040FFF7D5BE00BF0C
:10B30000382E00202309010807B5154AB2F84A3043
:10B310009BB2052B07D0062B0FD083B903B05DF885
:10B3200004EBFFF7C1BE0F4B0093202300211A4608
:10B330005E2004F0CDFF03B000BD0B4BF4E701230A
:10B34000B2F84A0019461A4680B204F067FF00239B
:10B35000FF220121054803B05DF804EB04F016BF9D
:10B36000382E0020A02B0108202B010825090108F8
:10B37000284B37B503EB40020446B2F8320103F51F
:10B380009E73184404F028FF234AD38A9BB2022BF1
:10B3900020D0032B0CBF4FF496704FF4FA70D18A73
:10B3A0001E4B89B2C9B119681D4DA1421D4902D079
:10B3B0001C602B680B602B680968928A5B1A92B23A
:10B3C000B3FBF0F30AB30322B3FBF2F202EB420247
:10B3D0009B1A0AE04FF4C870E1E78D211960D38A07
:10B3E0009BB2B3FA83F35B095B00FC225443542203
:10B3F00002FB03440C4B15221C440021202369202E
:10B40000009404F065FF03B030BD022B28BF022377
:10B41000EBE700BF04130108382E002008000020CD
:10B42000642F002000200020342601080020FFF7B0
:10B430009FBF0120FFF79CBF0220FFF799BF0320A9
:10B44000FFF796BF0420FFF793BF0000062008B562
:10B45000FEF744F8054B188A80B210B1012800D0DD
:10B4600008BDBDE8084004F035BE00BF382E0020FE
:10B4700010B5094CB4F8460080B2003818BF01205E
:10B48000FFF733FDB4F84600BDE8104080B2003845
:10B4900018BF012004F06CBE382E0020192310B50F
:10B4A000094CB4F8480080B2B0FBF3F0012301303E
:10B4B00080B21A46194604F0B1FEB4F84800BDE85F
:10B4C0001040C0B204F03EBE382E00202DE9F041FD
:10B4D00005F0CEF8274C014648BBE08D0A2580B226
:10B4E00005F040F8B0FBF5F305FB13009CB2631CBC
:10B4F00080B29BB2042888BF1C460123B4FBF5F63A
:10B500001D4F1A461946B0B2B7F9008004F086FE06
:10B5100010221A4B05FB16401A800123A7F8008061
:10B520001A46BDE8F041194680B204F077BE63893F
:10B530009BB2E3B16589E08D002180B205F012F87D
:10B540000235EDB2B0FBF5F0A3899BB2984238BF4B
:10B55000A089A38938BF80B29BB2C01A092828BF2E
:10B5600009200430C0B2BDE8F04104F0ADBE0F20A8
:10B57000F9E700BF382E0020362E0020342E0020A0
:10B5800008B505F075F850B9FEF79AF908B9012029
:10B5900008BDFEF7A5F90028F9D00320F8E7002040
:10B5A000F6E700002DE9F04778223149314805F0EF
:10B5B00071F9002859D004F06DFF35222E4BDA6066
:10B5C000FDF76CF82D4A116813685B1A012BFBD943
:10B5D0002B4C04F05FFF237E012B18D00123237630
:10B5E000FDF76CF888B9244DE0612B6943F0020344
:10B5F0002B61204B6B612B6943F040032B61FDF7FE
:10B600005DF82B6923F002032B6100232376FDF7FD
:10B6100045F84FF00109164F164D174EDFF86480BC
:10B6200004F038FF237E012B15D0B7F800A084F872
:10B630001890FDF743F860B9E061336943F0010306
:10B640003361A5F800A0FDF739F8336923F0010351
:10B650003361002323760235454507F10207DFD128
:10B66000054A136943F080031361BDE8F08700BF0A
:10B67000382E002000FC010800200240602F00202E
:10B68000402F002078FC0108F8B545F2AA54234B5E
:10B690001A8892B2A2423AD018467822FF2105F0C9
:10B6A000CDF80480034601245A6F01321CBF4FF0CD
:10B6B000FF325A675A8818BF012492B2372A08D835
:10B6C0004FF6FF715A8892B2372A22DD38220124C0
:10B6D0005A800022124903EB4206B5880F88ADB2AA
:10B6E000AF424FEA420004D8B5884E88ADB2AE42B0
:10B6F00003D2CC881844848001240132382A01F115
:10B700000801E8D10CB1FFF74DFF2046F8BD002439
:10B71000CAE703EB420081800132D5E7382E0020D2
:10B720000E000020000000000000000000000000EB
:10B73000074B19680868B0E8F00F80F30988BFF379
:10B740006F8F4FF0000080F311884EF00D0E7047A0
:10B750000030002000000000000000000000000099
:10B76000EFF30980BFF36F8F0D4B1A6820E9F00FDC
:10B77000106008B54FF0500080F3118801F018FAFE
:10B780004FF0000080F31188BDE808401968086890
:10B79000B0E8F00F80F30988BFF36F8F704700BFE8
:10B7A0000030002008B5FDF771FD012813D04FF0DF
:10B7B000500383F31188BFF36F8FBFF34F8FFDF7F3
:10B7C000E9FB28B14FF0E0234FF08052C3F8042D7D
:10B7D000002383F3118808BD04224349F0B4CE6BE3
:10B7E000086C35680B6802FA00F72F421C6828D0F5
:10B7F000670726D53D498B4216D03D4A934215D066
:10B800001432934214D01432934214D0143293421F
:10B8100014D01432934214BF4FF080634FF480036E
:10B82000344A5360F0BC70471346F9E74023F7E70A
:10B830004FF48063F4E74FF48043F1E74FF4802343
:10B84000EEE7022282402A4239D0A70737D51A688C
:10B85000900606D41A6822F00A021A60012281F8C2
:10B860002120224A93421DD0143293421CD014321C
:10B8700093421BD0143293421BD0143293421BD0FC
:10B880001432934214BF4FF000734FF40013194A5F
:10B890005360002381F820308B6A002BC2D0F0BCAB
:10B8A000114818470223F2E72023F0E74FF4007312
:10B8B000EDE74FF40053EAE74FF40033E7E70822DF
:10B8C00082402A42AED02207ACD51A6822F00E027E
:10B8D0001A60012303FA00F070608B634FF48073E9
:10B8E0000B840B6BD9E700BFE0300020080002405A
:10B8F0001C00024000000240F8B5674803685A681F
:10B90000910623D51A68920720D5826AD7065EBFB2
:10B91000826A42F4007282629A6802F46022B2F58E
:10B92000602F10D1C26872B95A6822F020025A60A2
:10B93000826A22F480728262826AD6045EBF826A60
:10B9400042F0010282626FF012021A605A68150614
:10B9500040F192801A68540740F18E80826AD106C5
:10B960005EBF826A42F4005282629A6802F4E04248
:10B97000B2F5E04F0AD05A68520516D49A6802F41C
:10B980006022B2F5602F10D1C26872B95A6822F0F5
:10B9900080025A60836A23F480538362836ADB05E2
:10B9A0005EBF836A43F0010383623C4B1968002940
:10B9B0005ED0FCF759FCEFF311844FF0500383F392
:10B9C0001188BFF36F8FBFF34F8F022391F8602070
:10B9D00081F86030CB6D012A03F10103CB6502D001
:10B9E00084F3118844E08B6A0BB1FCF70BFC2C4B01
:10B9F0001B68002B41D1D1E902524B69AA608D68C6
:10BA00000E1D55605A68274DB24208BFCA682F689C
:10BA100008BF5A601A68013A1A600122CB6A9A403C
:10BA20003A432A6014256B431F4AD7187D688D60FE
:10BA3000D5F808C0C1F80CC0CCF80460AE604F6106
:10BA4000D5580135D550194BCA6A1B68DB6A9A4232
:10BA5000C6D90122164B1A6084F311884FF0E023F7
:10BA60004FF08052C3F8042DBFF34F8FBFF36F8F99
:10BA70006FF00C0203681A60F8BD0E4B01F1180557
:10BA80005A68CA6196680E62756095601A688B6222
:10BA900001321A60D7E700BFB0300020AC30002080
:10BAA000A8300020A43000201830002000300020F2
:10BAB000FC2F002004300020F8B53D4B5A691206D7
:10BAC0001DD580225A613B4B1968C1B1FCF7CCFBF4
:10BAD000EFF311804FF0500383F31188BFF36F8FA2
:10BAE000BFF34F8F022391F8602081F86030CB6D57
:10BAF000012A43F00103CB6502D080F31188F8BD21
:10BB00008B6A43B14FF0500383F31188BFF36F8FFB
:10BB1000BFF34F8FFEE7284B1B68002B3AD1D1E9CA
:10BB200002424B69A2608C680D1D54605A68234C18
:10BB3000AA4208BFCA68266808BF5A601A68013A54
:10BB40001A600122CB6A9A40324322601424634374
:10BB50001B4AD61874688C60A768CF607D60A560AA
:10BB60004E61D4580134D450164BCA6A1B68DB6A44
:10BB70009A42C2D90122144B1A6080F311884FF007
:10BB8000E0234FF08052C3F8042DBFF34F8FBFF373
:10BB90006F8FB4E70D4B01F118045A68CA619568BC
:10BBA0000D626C6094601A688B6201321A60DBE788
:10BBB00000040140682F0020A8300020A43000209D
:10BBC0001830002000300020FC2F0020043000201E
:10BBD0000E4B1A6842F001021A6059680C4A0A407A
:10BBE0005A601A6822F0847222F480321A601A684D
:10BBF00022F480221A605A6822F4FE025A604FF43E
:10BC00001F029A60034B044A9A607047001002407A
:10BC10000000FFF800ED00E00080000815490B6807
:10BC20001A6A22F001021A621A6A1A62124A9342CE
:10BC30000DD141F21112186A104208D140F244426B
:10BC4000186A104202BF5A6C22F400425A6441F250
:10BC50001112186A104208D140F24442186A104288
:10BC600002BF1A6822F001021A60012381F83E30F7
:10BC7000704700BFB42F0020002C014010B50368AE
:10BC800004461A6991070ED5DA6892070BD56FF052
:10BC900002021A61012202779B699B0701D104F01D
:10BCA000A5FC0023237723681A69500710D5DA68AA
:10BCB00051070DD56FF004021A61022222779B69A9
:10BCC00013F4407F02D1204604F090FC0023237738
:10BCD00023681A6912070FD5DA6810070CD56FF0C0
:10BCE00008021A6104222277DB69990702D12046F3
:10BCF00004F07CFC0023237723681A69D20610D550
:10BD0000DA68D0060DD56FF010021A61082222778A
:10BD1000DB6913F4407F02D1204604F067FC002366
:10BD2000237723681A69D10739D5DA68D20736D55F
:10BD30006FF001021A6123681D4A934230D1FF213E
:10BD40001C4B1D4C1A88013A1A80226811641B4A48
:10BD50001178A1B11B889BB28BB119481378026886
:10BD6000DBB25363FCF7B2FE164B174A1B7811780F
:10BD7000994214D033B1BDE8104004F01FBCFFF766
:10BD80004DFFF1E7137040F20D12104B1A8023683B
:10BD9000DA624FF483725A6341F204529A6210BD20
:10BDA0000B4A934201BF0B4A136801331360F6E755
:10BDB000000800403A2F00206C2F0020382F002070
:10BDC000B42F0020372F0020362F0020342F0020E2
:10BDD000002C0140602F00200148FFF74FBF00BF3B
:10BDE00024310020044B05481A6805498A4208BFDF
:10BDF0001846FFF743BF00BFB42F00206C2F002070
:10BE000000040040044B05481A68B2F1804F08BF97
:10BE10001846FFF733BF00BFB42F00206C2F00205F
:10BE2000044B05481A6805498A4208BF1846FFF7BF
:10BE300025BF00BFB42F00206C2F00200008004059
:10BE40002DE9F74F054640B94FF0500383F31188B1
:10BE5000BFF36F8FBFF34F8FFEE7046C44B14FF019
:10BE6000500383F31188BFF36F8FBFF34F8FFEE74B
:10BE7000FDF70CFA08B9FCF7C5F964212046DFF894
:10BE80006892DFF868A29A4F56E019B9FCF7DEF91C
:10BE9000002074E020B9D9F80030DAF8008000936F
:10BEA000FCF7D4F9FCF7B4FFFCF7B6F995F8443089
:10BEB000FF2B04BF002385F8443095F84530FF2B55
:10BEC00004BF002385F84530FCF7C0F9FCF7A4F95E
:10BED000DAF800300098D9F80020904211D043459C
:10BEE0000FD32846FCF7B2F9FCF7FEFFFDF716F971
:10BEF000FCF792F9AB6B002B00F0C180FCF7A6F9C0
:10BF000018E0A3EB08028A42EBD2A8EB03035E1809
:10BF1000D9F80030DAF800800093FCF797F9FCF7C5
:10BF20007BF9AB6B73B32846FCF790F9FCF7DCFFA9
:10BF3000FDF7F4F831460120FCF76EF9AE6B002EE8
:10BF4000A3D02B68013EAE6333B9694B1B6813B1B4
:10BF50009A6D01329A65AB602B696BB1E869FCF7A9
:10BF60005FFF48B14FF0E0234FF08052C3F8042D3B
:10BF7000BFF34F8FBFF36F8FFCF768F9012003B059
:10BF8000BDE8F08FAB46FCF761F95BF8243B002B72
:10BF90004ED1FCF741F9AC68002C47D03A68E36A0F
:10BFA000D26A934263D21421A269002AA1BF3A68DF
:10BFB000D26AC2F10702A2614E4A01FB0323616902
:10BFC000994250D1211D08460191FCF712FFDFF87C
:10BFD00028C10199474A50B94FF0010EE36ADCF8D5
:10BFE00000000EFA03FE20EA0E00CCF800003B68C9
:10BFF000DCF800E0D86A0123834043EA0E03CCF862
:10C0000000301423434302EB030CE062DCF804002D
:10C01000A060D0F808E0C4F80CE0CEF8041081600D
:10C02000D158C4F814C00131D1500124FCF70EF9E5
:10C03000396858461831FCF7C5FE3046FDF736F929
:10C040002846FCF751FFFDF769F800287FF472AF2E
:10C050004FF0E0234FF08052C3F8042DBFF34F8F11
:10C06000BFF36F8F66E73B68DB6AE362DDE73B683F
:10C07000646DDB6A9C422CBF00240124D6E7FCF7E8
:10C08000E5F8002C3FF404AFFCF7C6F86B6A1BB16F
:10C090002B6B1B68C3F10703AC68002C3FF4F6AEB2
:10C0A000A16D41B94FF0500383F31188BFF36F8F37
:10C0B000BFF34F8FFEE7626D934238BF1346E26ACB
:10C0C00093423FF4E3AE01297FF4E0AE08490968EA
:10C0D0008C4213D14FF0500383F31188BFF36F8F5D
:10C0E000BFF34F8FFEE700BF302F0020642F0020EA
:10C0F0000030002018300020A4300020A169E36245
:10C100000029A4BFC3F10703A3611423124D03FB4D
:10C110000252636993427FF4B9AE261D3046FCF7A4
:10C1200068FE0121E36A0D4A994018B9106820EAB7
:10C130000100106010680143116014225343E91894
:10C140004A68A2609068E06046609660EA58616163
:10C150000132EA509AE600BF18300020A4300020D7
:10C1600008B5034B1868FFF76BFE00F0010008BD2F
:10C17000AC20002038B50546FFF7F2FF044648B171
:10C180002846FDF7FDFAFDF761FB0446FDF716FBB7
:10C19000FDF7E2FD204638BD2DE9F04105460E468B
:10C1A00017461C46FFF7DCFF50B1EDB22846FDF7FD
:10C1B000E7FAFDF74BFB38B9FDF700FBFDF7CCFDC7
:10C1C00000252846BDE8F081F0B2FDF73FFB0028CE
:10C1D000F2D04FF48032184B1A610F2300BF013B9D
:10C1E000FCD145F00100FDF7CBFAFDF72FFB05462A
:10C1F0000028E1D0104E08214FF00008FDF7F6FAB4
:10C20000013911F0FF0140EA4808F7D10223012C5F
:10C2100008BF204604F1FF3418BF08463361A4B2BA
:10C22000FDF7FCFA07F8018B002CE4D1FDF7C6FA04
:10C23000FDF792FDC5E700BF000C0140002307B5E4
:10C240008DF807300DF107020123FFF7A5FF9DF8D8
:10C25000070003B000BDF8B507460D4616461C465C
:10C26000FFF77EFF48B1F8B2FDF78AFAFDF7EEFA64
:10C2700030B9FDF7A3FAFDF76FFD00252846F8BD9C
:10C28000E8B2FDF7E3FA05460028F2D0013E24B9F2
:10C29000FDF794FAFDF760FDF0E704F0FBF816F8FF
:10C2A000010FFDF7D3FA0028E3D0013CA4B2EEE77A
:10C2B0002DE9F341804617460C4600250D4E637864
:10C2C00040468DF80730217801230DF10702FFF772
:10C2D000C2FF60B1A3782BB1316801333268521AC2
:10C2E0009342FBD80135BD4204F10304E7DB02B001
:10C2F000BDE8F081602F002008B550B94FF0E02371
:10C300004FF08052C3F8042DBFF34F8FBFF36F8FF0
:10C3100008BDFCF77DFD064B1B68012B01D0FBF728
:10C3200071FFFCF7C3FFFCF7F9FE0028E6D0EFE74A
:10C33000A83000202DE98048142093B0FFF7DCFFDF
:10C340003A20FFF717FF38B10D223A20BB49FFF71B
:10C35000AFFF002840F049813220FFF70BFF002893
:10C3600000F0E58000230F218DF8383032200123C2
:10C370000EAAFFF711FF002800F0D9809DF8383091
:10C38000332B02D0112B40F0D2800C223220AC494A
:10C39000FFF78EFF002800F0CA8000230F218DF8E0
:10C3A0003830322001230EAAFFF7F6FE20B19DF8A7
:10C3B0003830112B00F01C814FF00308A14B3220C4
:10C3C000C3F80080FFF798FF00229F4B1A609F4B35
:10C3D0001B8B9BB21BB14FF4FA60FFF78DFF00255A
:10C3E000102200210EA804F029FA102200210AA828
:10C3F00004F024FA1022002106A804F01FFA2F46A8
:10C400002E460324A946AA46C82240F6E4418F4B93
:10C41000B8F1020F5B8A9BB202FB1313039340F047
:10C42000F38004AA062301213A20FFF7B5FE10216C
:10C430003A20BDF81050BDF81270BDF81460FFF737
:10C44000FDFE0206EDBAFFBAF6BA40F18D81C0F3E7
:10C4500041047E4B1B8A9BB2022B06D1032C04D0D5
:10C46000B4FA84F0400903F035FE794812AB03EBCF
:10C47000490323F8105C23F8207C23F8306C037800
:10C480000EA90AAA0DF1180C4BB909F101035FFAC4
:10C4900083FEBEF1080F40F06B8101230370002082
:10C4A00093460291024601460346CDF804C0DDF8EA
:10C4B00008C001303CF902EBC0B2CDF808C07344AB
:10C4C000DDF804C03BF902EB082871443CF902EBAB
:10C4D000CDF804C07244EAD1002BB8BF0733C5EBD6
:10C4E000E303002BB8BF5B420029B8BF0731C7EB9D
:10C4F000E1010029B8BF4942002AB8BF0732C6EBA4
:10C50000E202002AB8BF52420B441344039A64204B
:10C510009A42B8BF4F4B09F10109BCBF1A684A4B98
:10C5200009F00709B8BF1A60FFF7E6FE6CE7302094
:10C53000FFF720FE98B10021012330200EAA8DF8CC
:10C540003810FFF729FE50B19DF83830F82B06D18E
:10C55000082230204049FFF7ABFE00284BD13020A5
:10C56000FFF708FE30B3002401230F2130200EAA6C
:10C570008DF83840FFF710FEE0B19DF83830112BF0
:10C5800018D10C223020354B35491C70FFF790FE36
:10C59000A0BB4C20FFF7EEFD28B105224C2031490D
:10C5A000FFF786FE68BB01460720FCF783FF4FF0CC
:10C5B000010803E73220FFF7DDFD0028E9D0002362
:10C5C0000F218DF83830322001230EAAFFF7E4FD49
:10C5D0000028DED09DF83830112BDAD101221F4B14
:10C5E00032201A7020490C22D0E74FF00208E5E60D
:10C5F0004FF00808E2E64FF00408DFE64FF00608C7
:10C60000DCE64FF00508D9E6B8F1030F02D0B8F127
:10C61000080F2BD10623A82104AA3220FFF7BCFD66
:10C62000B5213220BDF91050BDF91270BDF914606A
:10C63000FFF704FE8408013CE4B20AE7202D01085C
:10C64000472D0108202E0020D82E0020382E002053
:10C6500095250020642F00206B2D010894250020D3
:10C66000A72D0108CB2D0108832D0108B8F1040F77
:10C6700024D106230221302004AACDF810A0ADF861
:10C6800014A0FFF789FDA8B19DF811509DF8137013
:10C690009DF81560AD01BF01B6010C213020FFF7F8
:10C6A000CDFD83064FEA10145ED404F0030484F039
:10C6B0000104CEE6054607460646EEE7B8F1050F4B
:10C6C00024D10623022104AA4C20FFF765FD012393
:10C6D0000C214C2004AABDF91050BDF91270BDF90F
:10C6E00014608DF810A0FFF757FD9DF81030AD10C5
:10C6F000602B4FEAA7074FEAA60605D0702B08BFAC
:10C70000002418BF0324A4E60124A2E6B8F1060F12
:10C710007FF49FAE1A4BCDF810A01C78ADF814A092
:10C72000DCB930202821062304AAFFF735FDB8B173
:10C73000BDF91050BDF91270BDF91460002C0CBF8A
:10C74000302032203521FFF779FDC0F38704022C19
:10C750000CD004F0FB04012CD3E73220A821E2E73F
:10C76000054607460646E9E7032472E6002470E61C
:10C7700021F8135022F813702CF81360013386E669
:10C78000942500208FB503F045FF002800F0958028
:10C79000FDF796F8002800F09C8001210C20FDF7A1
:10C7A000DDF8002800F095809F4D0A20EB6898473F
:10C7B0000624FDF76BF8002800F083800F210B2082
:10C7C000FDF7CCF8002800F0848000210A20FDF756
:10C7D000C5F800287DD000210E20FDF7BFF8002805
:10C7E00077D000210F20FDF7B9F8002871D00C2177
:10C7F0000620FDF7B3F800286BD007210920FDF7CC
:10C80000ADF8002865D000210820FDF7A7F8002822
:10C810005FD004210720FDF7A1F8002859D0072197
:10C820000220FDF79BF8002853D00A20EB689847B8
:10C8300040217D48FDF786F80B2104460220FDF7D4
:10C840008DF8002845D00A20EB68984740217648AB
:10C85000FDF778F804F0030400F00300844240F28E
:10C860009A8025210320FDF779F890B30721022053
:10C87000FDF774F868B344210620FDF76FF840B364
:10C8800004210720FDF76AF818B302210C20FDF7F8
:10C8900065F8F0B101238020032464498DE81B0072
:10C8A00069466348FBF754FF0A211720FBF7CEFEC9
:10C8B0004FF400025F4B1A600BE00320FFF71CFDF2
:10C8C00061E70A20EB68013C984714F0FF047FF40D
:10C8D00070AFFDF7C9FBDFF85881574FD8F8083023
:10C8E000564C13F0800F5ED1D8F808301B0620D4C8
:10C8F0006B4607223C2165682078A847C8B19DF89F
:10C900000330DE0700F1C9809DF802305D0700F1B9
:10C91000F180D90642BF226C42F4806222641A067A
:10C9200007D59DF805309B0742BF236C43F02003D9
:10C93000236494F835317BB123699847D4F83831B2
:10C94000C01AB0F57A7F07D9236C43F04003236403
:10C9500023699847C4F8380194F8723153B12369B8
:10C960009847D4F83C31C01AC82882BF236C43F4DE
:10C9700000532364FDF778FBFCF7B2FF0028ADD02D
:10C9800094F83431192BA9D094F83130002BA5D16B
:10C9900094F83030A2E726210320FCF7DFFF0028BF
:10C9A00097D00B2163E7FCF733FAFBF735FC3B68C4
:10C9B00093F86030022B29D1FBF748FC0025FCF7E7
:10C9C000ADFB55B148B94FF0E0234FF08052C3F8AA
:10C9D000042DBFF34F8FBFF36F8FFBF71DFC3B6838
:10C9E00093F86030022B03BF3A680121D36D002118
:10C9F00004BF03F07F43D36500223B6883F86020C7
:10CA0000FBF724FC00293FF46FAF71E701253B6879
:10CA10003220DA6DDA653B6883F86050FBF716FC6C
:10CA2000FCF744FCCBE700BF60250020000021108C
:10CA3000000C014000E100E000300020F829002057
:10CA400043212F48FCF77EFF02222E4B43216568CD
:10CA500000F0E0062078A847B4F8F63013F4E04F71
:10CA6000C3F3023205D043216568274B207892003A
:10CA7000A847042243216568244B2078A847E02E6C
:10CA80000BD1B4F8F63023F47E635B045B0C0D2B02
:10CA90000AD1236C43F00103236441211848FCF7B9
:10CAA00051FF8006CCD52FE7D4F8EC60184D05EB8C
:10CAB00046168C350FCD0FC695E80F0086E80F009F
:10CAC000D4E93A239A4207D194F8F01021B1013207
:10CAD00002F00302C4F8E820013303F003039A4292
:10CAE000C4F8EC3004BF012384F8F030236C43F029
:10CAF0000203D1E7226C42F40072226409E700BF0E
:10CB0000F8290020EE2A0020F02A002070250020BD
:10CB1000602A002010B5FCF7DFFD044644B9FCF79D
:10CB2000DBFD04463220FFF7E7FB002CF7D010BDF9
:10CB3000FCF7D2FD04463220FFF7DEFBEEE70000F3
:10CB400070B50E4E35680544FCF7C6FD04465CB969
:10CB5000FCF7C2FD04463220FFF7CEFB33689D424E
:10CB60000BD3002CF4D008E0FCF7B6FD04463220CD
:10CB7000FFF7C2FB33689D42E9D270BD642F0020ED
:10CB8000074AB2F84A309BB2042B01D9FFF7C2BF63
:10CB90004FF47A70B2F84A309BB25843FFF7D0BFD7
:10CBA000382E0020012838BF0120FFF7A5BB000068
:10CBB00010B51D4B1A681D4B12B101221A6010BD31
:10CBC0001A601B4A13681B6B1968B1F1A53F0BD1A2
:10CBD0005968B1F1A53F07D19968B1F1A53F03D1DB
:10CBE000DB68B3F1A53F03D01368136803F040FC82
:10CBF000104B1B68B3FA83F31421DBB2C3F11F039C
:10CC00004B430D4CE158E01809B9FBF7FBFA4168BA
:10CC10000833496823449942416004BFC1684160B8
:10CC2000CB6813601368CAE7A8300020FC2F0020EF
:10CC300000300020A43000201830002040220D4B8E
:10CC40001A6120221A610F2200BF013AFCD14FF471
:10CC500000121A610F2300BF013BFCD14FF4800387
:10CC6000044A13610F2300BF013BFCD12023136151
:10CC7000704700BF000C01404FF40013094A1361D4
:10CC80000F2300BF013BFCD1402313610F2300BFE2
:10CC9000013BFCD12022034B1A610F2300BF013B53
:10CCA000FCD17047000C014020230A4A13610F2376
:10CCB00000BF013BFCD1402313610F2300BF013BA8
:10CCC000FCD14FF48002034B98681A61C0F3401006
:10CCD000704700BF000C0140014B1868FCF74EBFC5
:10CCE000602000202DE98048384A394913689BB0FC
:10CCF00043F010031360CA68364B22F4E06212045A
:10CD0000120C1343344CCB60FBF7E4FFA369002102
:10CD100043F00103A361A3696FF00B0003F001036B
:10CD20000793079BFBF792FC00216FF00A00FBF7CB
:10CD30008DFC00216FF00900FBF788FC00216FF0EB
:10CD40000400FBF783FC00216FF00300FBF77EFC7F
:10CD50000F216FF00100FBF779FC0F214FF0FF303E
:10CD6000FBF774FC636813F00C0F07D0636803F0E3
:10CD70000C03082B36D16368DF0333D423682368A0
:10CD800023F0F80343F080032360636803F00C038F
:10CD9000082B33D00022114B1A66114A1168236800
:10CDA0009D0100F1B2820121636823F4741343F4FE
:10CDB00060136360094B19661168236898011DD4DC
:10CDC00013685B1A022BF8D918E000BF002002405C
:10CDD00000ED00E00003FA050010024000004242AE
:10CDE000602F00200122C44B1A60C44A11682368D6
:10CDF0009E07C4D413685B1A022BF8D9C04A136883
:10CE000013F0060F00F08782636843F4E063636009
:10CE1000636843F460536360636823F0F003636006
:10CE20002368990100F184824FF47A726368B54FE8
:10CE300023F4404343F4004363603B68B3FBF2F3E5
:10CE4000013BB3F1807F0AD24FF0E022F021536121
:10CE5000AD4B83F8231000239361072313614FF038
:10CE6000E02213694FF002090326A84D43F00403A2
:10CE700013610F214FF0FF30FBF7E8FB6B6812A93D
:10CE800023F0E06343F080636B60A369A04843F044
:10CE90002003A361A3694FF0010803F020030B9363
:10CEA0000B9BA3694FF0100A43F00403A361A3692D
:10CEB00003F004030A930A9BA36943F00803A361E8
:10CEC000A369CDE9126603F008030993099BCDF825
:10CED0005490FBF73DFC6B68A0F5406043F0E063C5
:10CEE00043F400436B6048F27F73CDE91236FBF7E1
:10CEF0002FFC4FF6F77300F5806000261293FBF7C6
:10CF000027FC4FF4A063A0F58060CDE91236CDF880
:10CF10005080FBF71DFC00F58060CDE912A8149647
:10CF2000FBF716FC4FF4801303614FF40043A0F5A8
:10CF30008060CDE912381496FBF70AFC4FF00043ED
:10CF40000361CDE912984FF400391496FBF700FC09
:10CF50008023C0F8109000F58060CDE91236CDF83E
:10CF60005080FBF7F5FB6369052143EA0803636121
:10CF700063690B2003EA08030893089BFBF766FB31
:10CF80004FF40063634D05212B605046FBF75EFBB9
:10CF90004FF4803305212B601120FBF757FBC5F8B8
:10CFA00000905D4B5D4D2B604FF48073C5E90238F6
:10CFB0004FF460232846EB616E616E60C5F8108007
:10CFC000FBF7A2FC95F82430434510D02A6885F879
:10CFD0002480536B23F01F0343F00403536313694E
:10CFE00023F4E04343F4C043136185F8246003262F
:10CFF00001234FF4A04CCDE912634FF00408002345
:10D00000464812A9CDE9183C149617931593CDF80C
:10D010005880FBF78FFA022312A91393FBF78AFAC1
:10D020001396064612A9FBF785FA12A9CDF84C8093
:10D03000FBF780FA2A68536843F080035360304658
:10D04000FBF7B2F980460028F9D1354E354B4FF049
:10D05000010933604FF480734FF0020BC6E90239C7
:10D060004FF4602370617060306130464FF0030A06
:10D07000F361FBF749FC4FF4A043CDE912B94FF03F
:10D080000409304612A9CDE91883CDF85890CDF89F
:10D0900050A0CDF85C80CDF85480FBF74BFA12A974
:10D0A000CDF84CB0FBF746FA062312A9CDE9123AA7
:10D0B000FBF740FA12A9CDF84C90FBF73BFA30464B
:10D0C000FBF772F980460028F9D14FF080426423C3
:10D0D000154EFF21C6E900234FF40073C6E9031380
:10D0E0008023B0603046B361FBF752FD96F83C30C8
:10D0F000012B2AD01AE000BF00004242602F00201E
:10D10000002002402402002000ED00E00000014069
:10D110000014014000E100E000240140B030002094
:10D120001020002000280140B42F00200223326884
:10D1300086F83D30936823F47F4323F077039360B0
:10D14000012386F83C8086F83D304FF00008B54852
:10D15000FBF778FDB348FBF775FDB2480CA9CDE9A4
:10D160000C88FBF705FE6023CDE91238042312A9D1
:10D170004FF0010916934FF0020ACDF85080FCF7EA
:10D1800077FC0323A8480EA91193CDE90E9AFBF76B
:10D19000DFFAA448FBF79AFC4FF4FA63A34EDFF8DA
:10D1A00090E240F21B1BC6E900E34FF400733046E7
:10D1B000C6E903B3C6E90588C6F80880FBF7E8FCB2
:10D1C00096F83C304B450CD0326886F83DA0936809
:10D1D00023F47F4323F07703936086F83D9086F82D
:10D1E0003C809248FBF72EFD9048FBF72BFD4FF05B
:10D1F000000830238D480EA9CDE90E38FBF7B8FDA5
:10D200004FF0600C40F20D13CDE912C3042312A9B4
:10D210001693CDF85080FCF72BFC96F83C30CDF8F7
:10D220004C80012B23D033681A6A22F480521A6290
:10D230001A6AD3F804C0D969129821F4E64141EA88
:10D240000021149822F4005242EA003279488342C5
:10D2500002BF17982CF4804C4CEA801CC3F804C021
:10D26000D961139919641A62002386F83C3096F844
:10D270003D30012B02D16D48FBF70AFD6B48FBF7EF
:10D2800025FC96F84130012B1DD1022386F8413050
:10D290003368DA6842F01002DA601A6A22F48052C7
:10D2A0001A621A6A42F480521A62624A934240F049
:10D2B000A6805A6C42F400425A649A6802F007024F
:10D2C000062A40F0A9800F211E20FBF7BFF94FF07E
:10D2D0008042062064214CF6CC46574B1A60574BCF
:10D2E000574AC2E9003091601E6045F255561E60F3
:10D2F00058609960534912680868D368002B40F061
:10D30000B1804AF6AA231360B1E013685B1A022BBE
:10D310007FF645AD72E5136823F0070343F002037F
:10D320001360136803F00703022B3FF46DAD7BE538
:10D3300041F288306368434A23F0030343F0020359
:10D3400063601168636803F00C03082B2ED13E4A1A
:10D35000136803F00703022B2DD8636812AD43F462
:10D36000E0636360636823F460536360374B03F1E9
:10D3700010062A4618685968083303C2B342154696
:10D38000F7D140F20123ADF83830626802F00C03A7
:10D39000082B1DD02E4B62682E49C2F303128A5C03
:10D3A000D3402D4A1360FBF795FC3DE513685B1AEB
:10D3B0008342C7D938E5136823F0070343F002031B
:10D3C0001360136803F00703022B7FF42DADC4E74D
:10D3D000C2F3834368336B44D20313F8203C0BD56C
:10D3E00062681B49C2F340424B4368326A4412F8F8
:10D3F000302CB3FBF2F3CEE7184A5343CBE7B3F13B
:10D40000804F3FF45AAF164A93423FF456AF02F5AD
:10D41000806293423FF451AF1A6842F001021A60F1
:10D4200051E700BFB42F0020000801406C2F0020FE
:10D4300000080040002C014000E100E00030004006
:10D4400004200020602F0020002002403009010845
:10D4500000127A00A02C01082402002000093D00DF
:10D46000000400400B681B1A302B7FF646AF2A6879
:10D47000AB4B9A4202D0AB498A4204D15B6813F4A9
:10D48000702F40F0878095F82430012B00F08280C7
:10D490000123A54885F82430FAF70EFF002840F054
:10D4A000AA81AB6A2A6823F4706323F0010343F472
:10D4B0008073AB629B4B9A4205D199494B6813F438
:10D4C000702F40F08781AB6A23F48013AB625368FE
:10D4D000580548BFAB6A954942BF23F4405343F413
:10D4E0008053AB62AB6A002013F4805318BFEB6A21
:10D4F00085F8240018BF23F00603EB622B6A9962BB
:10D500006FF002011160916841F48071916093F8AD
:10D510002010012931D0012183F8201093F8211027
:10D52000012940F0658102F14C0E022283F821208E
:10D530001A68986310687E4E20F001001060D86B66
:10D540000390186C8140039841601020196848606E
:10D55000586810280BBF8E60C1F808E0C1F80CE0D5
:10D56000CE60DB6A002B00F03B81136843F00E03B2
:10D570001360136843F0010313602B689A6802F488
:10D580006022B2F5602F9A680CBF42F4A00242F408
:10D5900080129A6001254FF020084FF011094026B3
:10D5A0006148FAF773FF6348FAF770FF03F006F873
:10D5B000A369614843F00403A361A36912A903F0BE
:10D5C00004030E930E9BCDE9128915951495FBF774
:10D5D000BFF8CDE9126915951495FBF7B9F88023CA
:10D5E0004FF48002C0F81080066153490A6100BF01
:10D5F00000BF00BF00BF0E6100BF00BF00BF00BF83
:10D60000013BF2D14D48FCF765FB4D4B02251860FC
:10D61000FFF762FBA369112643F00403A361A3692A
:10D62000454803F004030C930C9BA36912A943F033
:10D630000803A361A369012403F008030693069B72
:10D64000CDE9125615941494FBF782F8CDE91246F1
:10D6500015941494FBF77CF805614FF48033802512
:10D660000461036100BF00BF00BF00BF046100BFD1
:10D6700000BF00BF00BF013DF3D13248FCF72AFBD9
:10D68000314B1860FCF768FB02F004FF78222F4949
:10D690002F4803F028F9FDF7F7FF2E4B18702846A6
:10D6A000FDF7CCFC02F0F6FE2B48FCF7BFFC2B4B41
:10D6B00018602B48FCF7BAFC2A4B18602A48FCF784
:10D6C000B5FC2A4B18602A48FCF7B0FC294B1860BF
:10D6D00002F0E0FE284A12AB12F8014B03F8014BAE
:10D6E000002CF9D1254B4FF480720193244B12A9E1
:10D6F000009324482346FCF797FB4FF0500383F335
:10D700001188BFF36F8FBFF34F8F4FF0FF310122AE
:10D710001D4B19601D4B1A601D4B1C603AE000BF89
:10D720000024014000280140B0300020658300083B
:10D730004020002010200020000C01406420002028
:10D7400060200020B0200020AC20002000FC010858
:10D75000382E0020CA290020042D0108142E002094
:10D76000E82C0108682F0020CC2C0108182E00207E
:10D77000B02C01081C2E00202B090108F8240020E1
:10D78000F8200020B9A70008EC2E0020282F002048
:10D79000642F0020314B1A78D2B2129219701B7884
:10D7A0002F4A8DF817309DF8173003F0500313708F
:10D7B00007232C4A13609DF8171009061FD4032B6A
:10D7C00025D04FF0500383F31188BFF36F8FBFF361
:10D7D0004F8FFEE7AB6A43F48013AB624B6877E68A
:10D7E000136823F004031360136843F00A03BFE6D1
:10D7F00083F82000C1E6002385F82430CAE69DF8AE
:10D800001710013B490013608DF81710D3E74FF450
:10D8100040731360129B114A002113704FF0E023F4
:10D820004FF47A70D3F8202D42F47002C3F8202D03
:10D83000D3F8202D42F07042C3F8202D1961996170
:10D840003A68B2FBF0F2013A5A6107221A61064BBC
:10D850001960FAF7C7FCFFF7ABF9FEE700E400E058
:10D86000703100206C310020280200200A4B80B16A
:10D8700020221A610F2300BF013BFCD14023064A3E
:10D8800013610F2300BF013BFCD14FF480031361F0
:10D8900070474FF40012ECE7000C014010B508216E
:10D8A000044604F080000139FFF7E0FF11F0FF01AA
:10D8B0004FEA4404F5D12022044B1A61FFF7F4F932
:10D8C00080F0010000F0010010BD00BF000C01401D
:10D8D00048F2E80358436423C00B584340F23D1319
:10D8E000B0FBF3F0074B5A8E92B242B139B95A8E5F
:10D8F00092B282422FBF08465B8E9BB2C01A024B87
:10D9000018607047382E0020F01F0020002170B5ED
:10D91000FFF7DEFF0123174A52F83310884215DA69
:10D920004FF47A75144A52F83360141D801B684313
:10D93000891B90FBF1F00C3254F8334052F833302D
:10D940001B1B584390FBF5F0204470BD0133322B74
:10D95000E2D14FF47A73EE22A0F5405031385843AB
:10D9600090FBF2F00A22504390FBF3F000F5F570C3
:10D97000EBE700BF9C2401089424010838B5044655
:10D9800078B102F07DFEFFF7C1FF0546204602F0A8
:10D99000BBFD0A23B0FBF3F080B2284420EAE0701C
:10D9A00038BD024B9868C0F38F00ECE7242E0020AE
:10D9B00038B5114C0546608C80B2C0B10020FFF72D
:10D9C000DDFF052300EBC000B0FBF3F020300123A6
:10D9D00003211A4680B202F021FC5DB1608CBDE8E3
:10D9E000384080B2B0FA80F0400902F06DBCFFF719
:10D9F000C5FFECE738BD00BF382E00200021224BC8
:10DA000070B51980214B04461980214B214D1E7899
:10DA1000EEB9FDF75BFD20483346FF22012102F0FD
:10DA2000B5FB0120FFF7C4FF54B1022002F04CFC0B
:10DA300028680021FDF7EAFABDE8704002F0AEBCAC
:10DA40002346FF220121144802F0A0FBF0E72868DA
:10DA5000FDF7DCFA02F0A2FC7CB1022002F034FCFB
:10DA60000120FFF7A5FF0023FF2201210A4802F051
:10DA70008DFBBDE87040FDF729BD2346FF22012143
:10DA8000054802F083FBEBE7362E0020342E002001
:10DA90000D2E00205C250020450A01082DE9F047E5
:10DAA000DFF88081044698F800704FF00009002FDD
:10DAB0000CBF32234FF0FF335B4E5C4D01203380AF
:10DAC000A5F80090FFF774FF002C40D04F450CBF25
:10DAD00022233223FF22338001214B465448A5F8EC
